:100000000C94EA040C94EF250C94CA250C94120568
:100010000C9412050C9435270C9412050C941205BF
:100020000C9412050C9412050C9412050C941205F4
:100030000C9412050C9412050C9412050C941205E4
:100040000C9473250C9412050C9412050C94120553
:100050000C9412050C9412050C9412050C941205C4
:100060000C9416260C941205036EDB363D9A999972
:10007000993DABAAAA2A3E000000803F072C7AA532
:10008000BA6CC590DA3B9365FC8BBC53F810FD3C11
:100090005692834DBD879D3AB63DCBC9BF5BBE73BB
:1000A000DA0FC93F05A84CCDB2D44EB93836A902F3
:1000B0000C50B9918688083CA6AAAA2ABE00000066
:1000C000803F0664EC1B3C04BC163E3BE5B93CC9D2
:1000D0003C37C29E5A3D660498083EEA69AAAA3E89
:1000E000000000803F00315D484F55520035305DC3
:1000F0004D494E0034305D4D494E0033305D4D4921
:100100004E0032355D4D494E0032305D4D494E0056
:1001100031355D4D494E0031305D4D494E00395D00
:100120004D494E00385D4D494E00375D4D494E00FA
:10013000365D4D494E00355D4D494E00345D4D49AB
:100140004E00335D4D494E00322E355D4D494E0017
:10015000325D4D494E00312E355D4D494E00315DC9
:100160004D494E0033305D5345430031355D5345B5
:100170004300305D5D5D5D5D534B49502028444F29
:1001800055424C452900372020205757572E5049BB
:100190004341504F542E434F4D0036484F4C445D21
:1001A0004C4546545D425554544F4E003553454CD2
:1001B0004543545D4455524154494F4E00304D41E2
:1001C0004E55414C003053454E534F52003045562A
:1001D000454E545300304F5054494F4E5300304C0D
:1001E0004F434154494F4E00305343484544554CCA
:1001F0004500304535003045340030453300305E31
:1002000000324F4E2054494D452053435245454EF0
:1002100029003128484F4C44204C45465420425434
:100220004E003053544F50205741544552204649B8
:100230005253540000305D5D5D5D5D534B4950206D
:10024000284D4F4953542900305D5D5D5D5D5D5D16
:10025000534B495020284943452900305D5D5D5D81
:10026000534B4950202852455045415429003045B0
:100270003200304531003043414C49420036534E44
:1002800053204F4B0036534E532045520034434CBD
:100290004B204F4B0034434C4B20455200305245CD
:1002A00053544152540000003154494D45204C4FA5
:1002B00053540030524553544F5245440030524538
:1002C00053455400314D454D204641494C00324D77
:1002D000454D204F4B0030534352204F4B00AED57D
:1002E00080A83FD300408D142002A1C8DA12817F7C
:1002F000D9F1DB40A4A6AF6B0164015E0156015049
:1003000001480142013C01360130012A0124011E4D
:10031000011701100109010201FB00F400ED00E6E4
:10032000004455524154494F4E3D20265E005D2CFD
:100330005D262E26255D263A265E005D275D262E4B
:1003400026255D263A265E004D4F495354555245A9
:100350003A262E26255D2826295E005D2C5D262660
:100360005D263A265E005D275D26265D263A265EDE
:100370000054454D50455241545552453A26265E4B
:1003800000265D265D263A265D2826295E00574414
:100390004D495245004E4F204556454E5453205925
:1003A00045540053435245454E20544D4F55543DFE
:1003B00020265D265E00434C4F434B2043414C4971
:1003C000423D2026265D5345435E00434C4F434B40
:1003D0002043414C49423D205E004D4F4953545506
:1003E0005245204C494D49543D204F46465E004DF4
:1003F0004F495354555245204C494D49543D2026B0
:10040000255E004D4F495354555245204C494D49A6
:10041000543D205E004845415420424F4F53543DC7
:10042000202626202B26265E004845415420424F98
:100430004F53543D2026265E0054454D5020554EC6
:1004400049543D20265E0053454E534F523D2026D1
:100450005E004C4F4E4749545544453D2026265E8C
:10046000004C4F4E4749545544453D205E0053458E
:1004700041534F4E3D2026255E004C415449545572
:1004800044453D2026265E004C4154495455444580
:100490003D205E004441594C494748542053415641
:1004A000494E473D20265E0054494D455A4F4E4522
:1004B0003D20262626265E0054494D455A4F4E457E
:1004C0003D205E004432443D20265E00534B49509F
:1004D00020575420444159533D20265E0053454146
:1004E000534F4E20434F4D503D204F46465E0053E4
:1004F0004541534F4E20434F4D503D204155544FA1
:100500005E00534541534F4E20434F4D503D202BED
:1005100026255E00534541534F4E20434F4D503DDD
:10052000205E004455524154494F4E3D20265E0006
:100530005754313D20263A26205754323D20262656
:100540005E005754313D202626205754323D202648
:100550003A265E005754313D20263A262057543221
:100560003D20263A265E005754313D20262620574E
:1005700054323D2026265E004245473D5D263A2600
:1005800020454E443D5E004245473D5D263A2620CB
:10059000454E443D5D263A265E004245473D5D2678
:1005A0003A2620454E443D5D4F46465E0045564541
:1005B00052593D5D265D265E004D4F44453D202647
:1005C0005E00263A263A265E0000000B102F0C0033
:1005D000000000000000000000000000000000001B
:1005E0000000000000F8FE060383C363331EFEF81C
:1005F000071F1E3331303030181F0700000C0C0E5F
:10060000FFFF0000000000003030303F3F3030304E
:10061000001C1E07030383C3E3773E1C30383C3EB7
:10062000373331303030300C0E07C3C3C3C3C3E798
:100630007E3C0C1C383030303030391F0EC0E0703A
:10064000381C0E07FFFF0000030303030303033FEF
:100650003F03033F7F636363636363E3C3830C1CF4
:10066000383030303030381F0FC0F0F8DCCEC7C320
:10067000C3C380000F1F393030303030391F0F03B3
:100680000303030303C3F33F0F03000000303C0FD9
:10069000030000000000BCFEE7C3C3C3E7FEBC00CC
:1006A0000F1F393030303030391F0F3C7EE7C3C365
:1006B000C3C3C3E7FEFC0000303030381C0E070314
:1006C0000000000070707000000000000000001CBE
:1006D0001C1C0000000000205B5B5B544D505D263D
:1006E00026204D53545D262E26255E005B5B2A5D39
:1006F000265B5B265D263A265D282629005D5B2A5F
:100700005D265B5B265D263A265D2826290020268D
:100710005D2625265E002020205D265D265D265D67
:100720003230265E00202020205B265D265D265D7F
:100730003230265E0020205D54494D45204C454610
:10074000543D5D265E00265E00265E000000050723
:100750002041000000000000004F00000000003EAB
:100760003E040404040402057E1404231308646296
:1007700036495522500C067F060C001C2241000011
:1007800041221C003846475C3808083E08081830EB
:100790007F30180808080808006060000020100872
:1007A00004023E5149453E00427F400042615149AA
:1007B000462141454B311814127F102745454539D4
:1007C0003C4A494930017109050336494949360611
:1007D0004949291E00002400003E000000000814C2
:1007E0002241000014141400004122140802015197
:1007F000090602053A44447E1111117E7F49494998
:10080000363E414141227F4141221C7F49494941B5
:100810007F090909013E4149497A7F0808087F009C
:10082000417F41002040413F017F081422417F4029
:100830004040407F020C027F7F0408107F3E414110
:10084000413E7F090909063E4151215E7F09192970
:1008500046464949493101017F01013F4040403F3F
:100860001F2040201F3F4030403F6314081463079F
:10087000087008076151494543007F414100020467
:100880000810200041417F000402010204222222BC
:1008900022223E3E3E3E3ED602CE02C402BD02B3FE
:1008A00002A802A702A6029D0295028D0285027D82
:1008B00002760272026E025B0248023502340222A4
:1008C0000212020102FE01FA01F601F201E801DE64
:1008D00001D501CD01C501BD01AC019A01860172AE
:1008E00001232323232323232323232323232323FA
:1008F000232323232323232323235E00005EBCE240
:10090000613FDD83C29C7E20A3FD1F41009D23BE6D
:1009100046DB65F88C11AF32CA57E97400030C0F3F
:1009200030333C3FC0C3CCCFF0F3FCFF00000000ED
:10093000240027002A0000347DC20001000100F0DD
:100940000000070004000101021300090001010179
:10095000004A02680300000E0012000300000000BD
:100960000000000000001800205D5D7C20205D5B21
:100970005B5B265D5D5B20207C5E0020524553451D
:10098000545D5D262052455452595E00DE021980A6
:100990004000534B495044415920262F265E000009
:1009A00000000023002600290004040404040404B9
:1009B000040202020202020303030303030102040E
:1009C00008102040800102040810200102040810D1
:1009D0002000462711241FBECFEFD8E0DEBFCDBFD9
:1009E00013E0A0E0B1E0E6EEF9E702C005900D9259
:1009F000A43DB107D9F725E0A4EDB3E001C01D92F5
:100A0000AE3AB207E1F714E0CAEED4E004C0219791
:100A1000FE010E94E63CC93ED107C9F70E949B2710
:100A20000C94F13C0C9400008091AB0120E4829F77
:100A3000C0011124826080937C0080917A008064E0
:100A400080937A0080917A0086FDFCCF80917800B7
:100A50009091790008959093A9058093A805FC01D1
:100A600024913196E491F22F319719F41092A60552
:100A7000089581E08093A60508952091760581E090
:100A8000213208F044C0809152058111FCCF809141
:100A9000750592E09093520591E0909351059FEF78
:100AA0009093500510924F0520934E05A5E5B5E0B3
:100AB000EEE2F5E090E0291331C010922D059091FF
:100AC0002D05880F892B80932D0580912C05813071
:100AD00049F510922C0580912D058093BB008091E3
:100AE000BC0083FDF8CF85EC8093BC00809152055B
:100AF0008230E1F3809150058F3FB1F08091500535
:100B00008032A1F080915005803391F084E0109202
:100B10005405109276051092530508953D91319336
:100B20009F5FC9CF85EEE0CF80E0F1CF82E0EFCFCD
:100B300083E0EDCF91E0909353058093750510927B
:100B4000540510927605089590912B0580912A0501
:100B50002FEF3FEF981748F4E92FF0E0E65FFA4FE8
:100B6000208130E09F5F90932B05C90108959091FB
:100B70002B0580912A052FEF3FEF981748F4E92FB6
:100B8000F0E0E65FFA4F208130E09F5F90932B0505
:100B9000C9010895482FE62F282F30E0863009F448
:100BA00059C000F58330E1F1853009F44FC0483079
:100BB000E0F14E3010F1443108F063C02E5031099D
:100BC00081E090E0A0E0B0E004C0880F991FAA1F68
:100BD000BB1F2A95D2F728B1EE2309F44FC0822B10
:100BE00088B908958A30C9F18B30D9F18930F9F686
:100BF000809180008F77809380002850310981E0B8
:100C000090E0A0E0B0E004C0880F991FAA1FBB1FAE
:100C10002A95D2F7E1112EC025B1809582232CC0F0
:100C20009091B0009F7D9093B00081E090E0A0E0B3
:100C3000B0E004C0880F991FAA1FBB1F4A95D2F7C6
:100C40002BB1EE23A1F0822B8BB9089594B59F7D33
:100C500094BDEBCF94B59F77FBCF809180008F7DC3
:100C6000CACF8091B0008F778093B000C6CF8095B7
:100C70008223EACF25B1822B85B9089580958223FE
:100C8000AFCF0895809108058F5F80930805089580
:100C900008950895AF92BF92CF92DF92EF92FF92A4
:100CA0000F931F93CF93DF936C017B018B01040F94
:100CB000151FEB015E01AE18BF08C017D10759F030
:100CC0006991D601ED91FC910190F081E02DC60172
:100CD0000995892B79F7C501DF91CF911F910F916C
:100CE000FF90EF90DF90CF90BF90AF900895880F66
:100CF000991F880F991F05970197F1F708951F9382
:100D0000CF93DF9310918F05C0919005D0919105FD
:100D1000912F909580FF16C0F8948A8189238A8349
:100D20008981812B89838AE090E00E9477068A81FD
:100D3000182B1A83789487E390E0DF91CF911F916D
:100D40000C947706F8948A8189238A838981812B80
:100D5000898381E490E00E9477068A81182B1A83A8
:100D6000789485E090E0E9CF0F931F93CF93DF93C2
:100D7000082FC8E0D0E011E081E0902F912309F422
:100D800080E00E947F06110F2197B1F7F894E0915F
:100D90009005F0919105918180918F058095982320
:100DA0009183E0919005F09191059281892382834E
:100DB0007894DF91CF911F910F9108950F931F9316
:100DC000CF93DF938C0185E50E94B406E801085FAC
:100DD0001F4F89910E94B406C017D107D1F7DF9148
:100DE000CF911F910F9108950F931F93CF93DF938E
:100DF00010918F05C0919005D0919105F89489814B
:100E0000812B89838A81012F009580238A8383E047
:100E100090E00E9477068981802389838AE090E0B0
:100E20000E947706C881789485E390E00E94770657
:100E30001C2381E009F480E0DF91CF911F910F9195
:100E40000895FF920F931F93CF93DF9310918F0517
:100E5000C0919005D0919105F8948981012F00955A
:100E60008023898378948DE7F82EFA94FF2061F12E
:100E700082E090E00E94770688818123B1F3F894A4
:100E80008A8180238A838981812B8983789480EE6B
:100E900091E00E947706F89489818023898386E413
:100EA00090E00E94770688811823C1E009F0C0E035
:100EB00078948AE991E00E9477068C2FDF91CF9198
:100EC0001F910F91FF900895C0E0F7CF3FB7F894BE
:100ED0008091460490914704A0914804B091490440
:100EE00026B5A89B05C02F3F19F00196A11DB11D85
:100EF0003FBFBA2FA92F982F8827BC01CD01620FC1
:100F0000711D811D911D42E0660F771F881F991F7B
:100F10004A95D1F708958F929F92AF92BF92CF9248
:100F2000DF92EF92FF926B017C010E9466074B01FA
:100F30005C01C114D104E104F104B9F00E94660718
:100F4000681979098A099B09683E734081059105F2
:100F500080F381E0C81AD108E108F10828EE820E7A
:100F600023E0921EA11CB11CE4CFFF90EF90DF9014
:100F7000CF90BF90AF909F908F9008952FB7F89427
:100F8000609142047091430480914404909145041F
:100F90002FBF0895CF93DF93EC018A85882329F032
:100FA00081508A87DF91CF9108959C818E81981717
:100FB000C8F7E881F9810084F185E02D42E0CE0197
:100FC00009958C818F5F8C83EDCFDC0180E06150CF
:100FD00090F09D919827E92FEF70F0E0E450F74FE3
:100FE0002491E92FE295EF70F0E0E45FF64FE49191
:100FF000822F8E27ECCF089585ED8093BC008091E1
:10100000BC0084FDFCCF10925205089520911E046F
:10101000260F3327331F21323105ECF4209152057E
:10102000FC0190E080E0243069F082E00895A09116
:101030001E042191AC0142505C4FA40FB52FB11D8D
:101040002C930196861798F380911E04680F609385
:101050001E0480E0089581E008950895E0912B0535
:1010600080912A05E81730F4F0E0E65FFA4F8081BE
:1010700090E008958FEF9FEF089580912A05909159
:101080002B05891B990B0895CF92DF92EF92FF9267
:101090000F931F93CF93DF937C01CB018A012091A3
:1010A0005305222389F0EB016B01C40ED51ECC152C
:1010B000DD0569F06991D701ED91FC910190F08116
:1010C000E02DC7010995F3CF642F0E940608C801DF
:1010D000DF91CF911F910F91FF90EF90DF90CF9014
:1010E0000895CF93DF931F92CDB7DEB76983209128
:1010F00053052223F9F020917605203258F021E0A3
:1011000030E0FC013383228390E080E00F90DF9198
:10111000CF91089580915405E82FF0E0EB5AFA4FF3
:10112000998190838F5F809354058093760581E049
:1011300090E0ECCF61E0CE0101960E940608F7CF67
:101140009C0183709927892B39F4C90164E670E00A
:101150000E94543C892B59F4C90160E971E00E9456
:10116000543C9C0181E0232B19F080E0089581E03C
:101170000895EF92FF920F931F93CF93DF93CDB714
:10118000DEB72C970FB6F894DEBF0FBECDBF7C0143
:10119000462FFC01238130E02A5F3F4F848181503C
:1011A000990BE7E0F0E0BF010E94543CB901681BD5
:1011B000790BCB01BF010E94543C9F01281B390BC6
:1011C000C901BF010E94543C11E0180F442399F05B
:1011D00037E0439F100D112489EF810F2C960FB635
:1011E000F894DEBF0FBECDBFDF91CF911F910F915D
:1011F000FF90EF9008958CE0ECEAF1E0DE011196AB
:1012000001900D928A95E1F7F7018581FE01E80FC3
:10121000F11D0081823049F4F701868190E080530E
:10122000984F0E94A00881110F5F202F211B330BC4
:10123000C90167E070E00E94543C812F37E0639F52
:10124000800D1124CBCFAF92BF92CF92EF92FF923D
:101250000F931F93CF93DF935C01162FF22EFC01A7
:10126000D581D61729F0C1E06D1780F0C0E00EC01F
:10127000642F0E94B908F5019481C1E0891730F00C
:101280009813F4CFC1E082818F1580F3D01729F035
:1012900081E0D01780F080E00EC06E2DC5010E9465
:1012A000B908F5019481981760F09813F4CF81E0A4
:1012B00092819C1580F7101730F4CC2331F0C82FA1
:1012C00004C081E0F8CFCC23D1F38C2FDF91CF91F4
:1012D0001F910F91FF90EF90CF90BF90AF90089526
:1012E0008F929F92AF92BF92CF92DF92EF92FF9236
:1012F0000F931F93CF93DF93EC011E81212F30E0DA
:1013000050E040E049015A0181E0881A9108A108A3
:10131000B1080D81ADE6B1E00E94BF3C6B017C01DC
:10132000C501B40124E030E040E050E00E948A3C76
:10133000C20ED31EE41EF51EC501B4012CE93FEF19
:101340004FEF5FEF0E948A3CC20ED31EE41EF51ED3
:10135000802F8150990BFC01EE0FFF1FE55BFD4FC5
:101360002C8180819181280F392F311D032E000C93
:10137000440B550BC20ED31EE41EF51E033058F06D
:10138000812F90E00E94A008882329F09FEFC91ABE
:10139000D90AE90AF90AC701B601DF91CF911F9175
:1013A0000F91FF90EF90DF90CF90BF90AF909F9004
:1013B0008F900895CF92DF92EF92FF92CF93DF93B9
:1013C000EC0182EA91E00E9470096B01CE010E945B
:1013D0007009C601861B970BDF91CF91FF90EF90AC
:1013E000DF90CF9008952091A304222371F049E06B
:1013F000489F9001499F300D1124C90165E070E0BC
:101400000E94543CCB01805C9E4F08958F929F9226
:10141000AF92BF92EF92FF920F931F93CF93DF9300
:10142000EC01F22EDB01CA010996A11DB11D439703
:10143000A105B10508F070C04115510561057105A0
:10144000C1F480E38883222309F46FC0898382E09A
:1014500090E08C0F9D1FFC011082CE01DF91CF9197
:101460001F910F91FF90EF90BF90AF909F908F9042
:101470000895E12C77FF09C07095609550954195CE
:101480005F4F6F4F7F4FEE24E3948E018AE0882EEA
:10149000912CA12CB12CC8018C1B9D0B4115510521
:1014A0006105710581F0CB01BA01A50194010E948B
:1014B0008A3C942F852F605DF80161938F01A9010B
:1014C000692F782FE8CFFF2021F0019620E3F80163
:1014D0002083EE2031F0FE01E80FF91F2DE220837A
:1014E0000196FE01E80FF91F10820197BF01DE018E
:1014F0009D012C1B3D0B281739070CF0AECF2D9109
:10150000FB013291BF01AD0141505109FA01308315
:10151000FB0120830197ECCFF12C411551056105AA
:10152000710509F0A6CF80E3888381E090E091CF38
:10153000CF92DF92EF92FF920F931F93CF93DF939F
:101540006C01990FEE08FF08C7E7D5E0F7FE0DC064
:101550008DE280937705F094E094D094C094C11C00
:10156000D11CE11CF11CC8E7D5E0C701B6012AE097
:1015700030E040E050E00E948A3CBA01A90120E03E
:10158000CE010E94060A8E012196F8018081811108
:10159000FACF8EE28083C701B6012AE030E040E056
:1015A00050E00E948A3C605DF8016183128287E707
:1015B00095E0DF91CF911F910F91FF90EF90DF9019
:1015C000CF9008954F925F926F927F928F929F92E9
:1015D000AF92BF92EF92FF920F931F93CF93DF933F
:1015E00000D01F92CDB7DEB77C012A013B011982E2
:1015F0001A821B82CB01BA0128EE33E040E050E0B2
:101600000E94683C49015A01C301B20120E83EEE44
:1016100046E350E00E94683CBA01A90110E000E0F6
:10162000411551056105710571F021E0CE0101966A
:101630000E94060A8981F70180838A8181838AE377
:10164000828303E010E0C501B40120E13EE040E008
:1016500050E00E94683C2CE330E040E050E00E9403
:10166000683C29014B015C0121E0BA01A201CE01D5
:1016700001960E94060A0E0D1F1D8981F8018083C4
:101680008A8181838AE3828321E0B501A401CE01AE
:1016900001960E94060A8981F80183838A818483E6
:1016A0001582C7010F900F900F90DF91CF911F917E
:1016B0000F91FF90EF90BF90AF909F908F907F9091
:1016C0006F905F904F900895CF93DF93EB01589AFE
:1016D000BC01990F880B990B0E948B075898BE018B
:1016E000DD0F880B990BDF91CF910C948B078F92B4
:1016F0009F92AF92BF92CF92DF92EF92FF92CF93E1
:10170000DF93FC01EB012A8130E0A0E1BEE00E9402
:10171000A93C6B017C01298130E0ACE3B0E00E9480
:10172000A93CC60ED71EE81EF91E8881C80ED11C22
:10173000E11CF11C228130E0A0E1BEE00E94A93C46
:101740004B015C01218130E0ACE3B0E00E94A93C98
:10175000860E971EA81EB91E8081880E911CA11CA2
:10176000B11CC701B601681979098A099B09DF9183
:10177000CF91FF90EF90DF90CF90BF90AF909F9070
:101780008F900895CF92DF92EF92FF92CF93CAE0AD
:10179000C12CD12C76010E94140561E070E080E03C
:1017A00090E00E948B070E9414059C01A8E8B3E119
:1017B0000E94A93C2AE096958795779567952A958A
:1017C000D1F7072E000C880B990BC60ED71EE81E0A
:1017D000F91EC15001F7C701B6012AE030E040E030
:1017E00050E00E948A3C243C89E03807DCF1283232
:1017F0008AE03807D4F12C388AE03807CCF12E3B48
:101800008AE03807C4F1203F8AE03807BCF128316C
:101810008BE03807B4F120348BE03807ACF12E357B
:101820008BE03807A4F12C378BE038079CF1203986
:101830008BE0380794F1243A8BE038078CF1283B91
:101840008BE0380784F1263D8BE038077CF12E3F92
:101850003B407CF18EE090E0CF91FF90EF90DF90E5
:10186000CF90089590E080E0F7CF81E090E0F4CF52
:1018700082E090E0F1CF83E090E0EECF84E090E072
:10188000EBCF85E090E0E8CF86E090E0E5CF87E021
:1018900090E0E2CF88E090E0DFCF89E090E0DCCF1D
:1018A0008AE090E0D9CF8BE090E0D6CF8CE090E05A
:1018B000D3CF8DE090E0D0CFAF92BF92CF92DF92A6
:1018C000EF92FF920F931F93CF93DF934091CD043C
:1018D0005091CE049A0157FF04C022273327241BBE
:1018E000350B80EF90E08C01021B130B293731057B
:1018F0003CF4B901452B41F490EFE92EF12C07C0DF
:10190000203F3105C9F3B8010E94543C7B01E9E551
:10191000F4E047E754E081E0293731050CF480E03A
:10192000819581934E175F07B1F7293731050CF484
:101930008901D0E0C0E0D12CC12CAA24A394B12C01
:10194000EC2FC016D106FCF4CE01B7010E94543C26
:10195000892BC9F48FEFC81AD80ACE0180959095CB
:1019600087709927A50101C0440F8A95EAF7E6958B
:10197000E695E695F0E0E75AFB4F8081293731057F
:101980008CF4842B80832196C03FD105C9F6DF916A
:10199000CF911F910F91FF90EF90DF90CF90BF906C
:1019A000AF90089540958423EDCF222341F0861710
:1019B000970719F0AC0141505109CA0108958417E5
:1019C000950721F0AC014F5F5F4FF7CFAB01F5CF2B
:1019D000CF93C82F8091BB04982F9D7F913031F415
:1019E0002091AD043091AE04232B19F0C33009F0DF
:1019F00046C08FEF8C0FE091AF04823010F0E09181
:101A00005101F0E0EE0FFF1FEF53FE4FA081B181B7
:101A100028EE33E00E94B83C2091B704222369F1FC
:101A2000C33059F130919701311127C030E0235E66
:101A30003F4F4AE0429FF001439FF00D1124209157
:101A4000E9043091EA042E173F07BCF02091A1046D
:101A50003091A204429FD001439FB00D1124AC5994
:101A6000BF4F9B01AC010E94CA3C24E630E040E03D
:101A700050E00E94683CCA01B901CF910895E091FD
:101A8000AF04F0E0EE0FFF1FEF53FE4F0190F08127
:101A9000E02D2091830430918404032E000C440B2C
:101AA000550B8230E9F06091AD047091AE04072EC1
:101AB000000C880B990B0E94383CAB01BC01769559
:101AC0006795579547954C595F4F2AE030E0DF0105
:101AD0000E94B83CDA019B01AC010E94BF3C9CCF44
:101AE00063E070E080E090E0E6CFCF93DF93CDB786
:101AF000DEB729970FB6F894DEBF0FBECDBF99E0D1
:101B0000E2EAF1E0DE01119601900D929A95E1F77B
:101B10009091A4019F7140E2849F90011124922B27
:101B2000882311F08630B9F5811110C09B83788726
:101B3000698789E0FE013196A2E1B1E001900D9242
:101B40008A95E1F7892F8F71809314012FE331E09B
:101B500089E0F901D901199601900D928A95E1F772
:101B60002950310981E02231380791F79B8378872A
:101B7000698789E0FE013196ABE1B1E001900D92F9
:101B80008A95E1F729960FB6F894DEBF0FBECDBF58
:101B9000DF91CF91089560E070E0D8CF1F93CF938D
:101BA000DF93EC01162F61E0411101C060E08889EC
:101BB0000E94CA0581E58CBD81E08DBD60E08F8506
:101BC0000E94CA051EBD00000DB407FEFDCF8EB5F4
:101BD00061E08F85DF91CF911F910C94CA05DC01E4
:101BE000ED91FC910084F185E02D40E00994FC0129
:101BF0002781269526952695621720F46583606BCC
:101C00000C94EF0D08950F931F93CF93FC01268141
:101C1000621798F4C62F8C0164836085C60F6C2F01
:101C20006F700E94EF0D6C2F62956F706061C8013C
:101C3000CF911F910F910C94EF0DCF911F910F91A8
:101C40000895DF92EF92FF920F931F93CF93DF934C
:101C5000EC01D62EE42E022F1A868F81869586956A
:101C60008695281710F00FEF080F1E2D60E0CE01AB
:101C7000011780F00E94030E612FCE010E94F70D24
:101C8000F12C6D85CE010E94CA07F394DF14C8F7CA
:101C90001F5FECCF0E94030E6E2DCE01DF91CF911E
:101CA0001F910F91FF90EF90DF900C94F70DFC01C6
:101CB000278126952695269521506681615040E022
:101CC0000C94210E2F923F924F925F926F927F92CF
:101CD0008F929F92AF92BF92CF92DF92EF92FF923C
:101CE0000F931F93CF93DF93CDB7DEB72C970FB62B
:101CF000F894DEBF0FBECDBFFC01238534852115CE
:101D0000310509F458C1062F9C878B87F90132965B
:101D1000749031965491C52ED12CF7E0CF0ED11C82
:101D200093E0D594C7949A95E1F7CB82F901349664
:101D300044913196E491641740F08E2F90E0BC01FD
:101D4000640F711D06171706ACF10D3001F560E048
:101D50008B859C850E94030E81E090E02C960FB647
:101D6000F894DEBF0FBECDBFDF91CF911F910F91D1
:101D7000FF90EF90DF90CF90BF90AF909F908F90AB
:101D80007F906F905F904F903F902F9008950A3012
:101D900009F011C160E08B859C850E94030EEB85E4
:101DA000FC85868565818C9D600D1124CF010E9484
:101DB000F70DD2CF7901F6E0EF0EF11C602F641B16
:101DC000EB85FC854185F90174912F5F3F4FF90147
:101DD0002491372F2230310508F072C07C9C90018D
:101DE0007D9C300D1124629FC001639F900D1124D2
:101DF000E80EF91E512CEB85FC8534802580F28598
:101E0000FC83272D30E03A83298388248394912C06
:101E1000412C842F90E098878F838FE790E0FC011E
:101E2000E319F109FA87E987FB814F1608F0BFC073
:101E3000612C23EA200F2D8331EA300F3E83EB859E
:101E4000FC858685681608F0A9C02C812287411080
:101E500002C0662069F0EB85FC8515811F5F632D4C
:101E6000CF010E94030E612F8B859C850E94F70D88
:101E70000B3509F048C010E0212F30E083E090E0FE
:101E80000D3531F089859A850E3511F090E080E0AE
:101E90004F815885840F951F281739070CF03BC0D8
:101EA00051E0651206C0EB85FC85858560E48F3FB7
:101EB00009F060E08B859C850E94CA071F5FDCCF1C
:101EC000577028E0522E551A511101C0512CF701BC
:101ED000712C30E020E0761631F05491250F311D41
:101EE00073943196F8CFF701E70DF11D7490C29EFF
:101EF000F001C39EF00DD29EF00D11248E0F9F1F96
:101F0000E80EF91E78CFFD81B12CA12CF23028F417
:101F10000B3309F03EC0639492CFA714B0F5F501DE
:101F2000EE0DFF1D1491552061F0C814D90449F439
:101F3000E12FF0E0052C02C0F595E7950A94E2F751
:101F40001E2FEB85FC8586858230B1F461101295D9
:101F50001F70E12FF0E0E45EF64F1491F1E06F1294
:101F600006C0EB85FC8585858F3F09F41064612FE1
:101F70008B859C850E94CA07612F8B859C850E945A
:101F8000CA07FFEFAF1ABF0AC8CF023209F4C3CFA6
:101F9000BFCF2E81223008F4BECF6DCF439429816C
:101FA0003A81E20EF31E3FEF831A930A3DCF622D72
:101FB0008B859C85FCCE90E080E0D0CE6DEA8DE9EB
:101FC00095E00E94EF0D61E070E080E090E00E94FB
:101FD0008B076BE88DE995E00E94EF0D61E070E002
:101FE00080E090E00E948B076FEA8DE995E00E9407
:101FF000EF0D10920505109207051092060581E07D
:102000008093C90461E070E080E090E00C948B075D
:10201000089590E080E00895DF92EF92FF920F9391
:102020001F93CF93DF9320919C05211106C0E92EC9
:10203000D82E0E94210781110FC010929A0510928C
:102040009C0510929B0580E0DF91CF911F910F912D
:10205000FF90EF90DF90089580EF0E94B406D1E0EA
:1020600000E0F12CC1E00E94F406182F0E94F40653
:102070001130E1F48130C9F5C134F8F2F0929A05DB
:10208000F11003C081E080939C0580919205882324
:10209000A1F2A2E9B5E0ED2DFE2DCF0108962D911C
:1020A0002193E817F907D9F781E0CECFE02FF0E0D0
:1020B000181311C080919A05C817A8F4DF01A15721
:1020C000BA4F13968C918D2381F410E0C93010F42F
:1020D000C0939B05FC2EE157FA4F83819D2F90956D
:1020E000892383830AC08C13F0CFE02FF0E0E157FF
:1020F000FA4F83818D2B838311E0812F0E947F060D
:10210000CF5FDD0F11F40F5FD1E0083008F4ABCFE3
:10211000B3CF909152059111FCCF282F91E090936D
:102120005205909351053FEF3093500510924F05A3
:10213000380F30934E0590932D0590912D05906D9D
:1021400090932D0590912C05913019F510922C0546
:1021500090912D059093BB009091BC0093FDF8CF1A
:1021600095EC9093BC00909152059130E1F39091E1
:102170004F05981710F420914F05AEE2B5E0EAE064
:10218000F5E080E0821307C010922B0580932A05AA
:10219000089595EEE6CF9D9191938F5FF3CF2F92A7
:1021A0003F925F926F927F928F929F92AF92BF9277
:1021B000CF92DF92EF92FF920F931F93CF93DF9313
:1021C000CDB7DEB7A1970FB6F894DEBF0FBECDBF77
:1021D000682E962E722E832E702F612F8E010F5F28
:1021E0001F4F81E2D8011D928A95E9F7FA0131E08B
:1021F00020E08AE2582E8491422F50E08823F1F0AB
:10220000863209F061C0A72DB82D313059F0A72FC3
:10221000B62F323039F0D701333021F0D6013430C7
:1022200009F0D501109709F03FC02F5F400F511FF3
:10223000DA015C923F5F31962032E8F2200F312FB5
:10224000311DF9011082662D8DE995E00E94030E83
:10225000692D8DE995E00E94F70D1092AA05F8010D
:1022600001900020E9F73197AF01401B510BB801F5
:102270008DE995E00E944A06A1960FB6F894DEBF5C
:102280000FBECDBFDF91CF911F910F91FF90EF90C7
:10229000DF90CF90BF90AF909F908F907F906F9086
:1022A0005F903F902F9008951D01400F511FD10165
:1022B0008D911D01882309F4BDCF2F5FDA018D9325
:1022C000AD012032A1F7B6CF2F5F400F511FDA01C9
:1022D0008C93B1CFAF92BF92CF92DF92EF92FF92E9
:1022E0000F931F939A0142EFA42E42E0B42E650192
:1022F00075018501AB01BC0190E080E00E94CF1028
:102300001F910F91FF90EF90DF90CF90BF90AF9013
:102310000895CF93DF93CDE9D5E0198642EF52E0DF
:1023200061EE78E081E090E00E946A1181E08987A7
:10233000DF91CF9108958F929F92AF92BF92CF92EB
:10234000DF92EF92FF920F931F93CF93DF93CDB75E
:10235000DEB76E970FB6F894DEBF0FBECDBF9E01FD
:102360002F5F3F4F49019EE1F90111929A95E9F7DC
:10237000E82FF0E0EE0FFF1FE956F74F259134915B
:10238000F90114911053D40180E0281939092F5F05
:102390003F4FF901EA0FFB1FE491EE2321F08F5F1D
:1023A000ED938D31B1F7F401E80FF11D10828CE44B
:1023B00097E00E942B0581E08093A6058093AB05F2
:1023C000612F70E082EFA82E82E0B82E65017501C2
:1023D0008501940149E457E090E080E00E94CF102D
:1023E0006E960FB6F894DEBF0FBECDBFDF91CF91D2
:1023F0001F910F91FF90EF90DF90CF90BF90AF9023
:102400009F908F9008950F931F93CF93DF93CDB735
:10241000DEB729970FB6F894DEBF0FBECDBF098394
:102420001A832B833C834D835E836F8378878987F0
:1024300088E60E949A0560E083E895E00E947108B2
:102440000E943D05882329F0589A89E10E949B113A
:10245000FFCF88E60E949A0560E083E895E00E943D
:10246000710860E883E895E00E9471088A811AE0AB
:10247000612F0E94483C8295807F682F690F83E816
:1024800095E00E9471088B818F73612F0E94483CF8
:102490008295807F682F690F83E895E00E9471081C
:1024A0006C8183E895E00E9471088D81612F0E9404
:1024B000483C8295807F682F690F83E895E00E94F1
:1024C00071088E81612F0E94483C8295807F682F21
:1024D000690F83E895E00E9471088F81612F0E9447
:1024E000483C8295807F682F690F83E895E00E94C1
:1024F00071080E943D0588E60E949A0560E083E825
:1025000095E00E9471088981612F0E94483C829564
:10251000807F682F690F83E895E00E9471080E9410
:102520003D0565E070E080E090E029960FB6F894F4
:10253000DEBF0FBECDBFDF91CF911F910F910C94E5
:102540008B070F931F93CF938C0188E60E949A0507
:1025500068E083E895E00E9471080E943D058823A9
:1025600029F0589A8FE00E949B11FFCF80E290E003
:102570000E948910C0E0803249F060E085E00E944E
:10258000CA05589A8FE00E949B11FFCF90912A05AF
:1025900080912B05981741F00E94B705F801EC0FC8
:1025A000F11D8083CF5FF2CF88E60E949A0568E232
:1025B00083E895E00E9471080E943D05882329F078
:1025C000589A8FE00E949B11FFCF83E190E00E9418
:1025D0008910833149F060E085E00E94CA05589A6D
:1025E0008FE00E949B11FFCF90912A0580912B05CF
:1025F000981741F00E94B705F801EC0FF11D808398
:10260000CF5FF2CFCF911F910F910895EF92FF927C
:102610000F931F93CF93DF938C0188E60E949A0556
:1026200068E083E895E00E94710878018FE1E80E88
:10263000F11CE801699183E895E00E947108CE15CC
:10264000DF05C1F70E943D05882329F0589A8EE0E6
:102650000E949B11FFCF88E60E949A0567E283E8FB
:1026600095E00E947108780182E3E80EF11C6991FF
:1026700083E895E00E947108CE15DF05C1F762E39B
:10268000C8010E94E507682F83E895E00E94710861
:102690000E943D05882329F0589A8EE00E949B11E4
:1026A000FFCFDF91CF911F910F91FF90EF90089591
:1026B000EF92FF920F931F93CF931092FD0310920E
:1026C0009C0510929B0588E28093920510929305D9
:1026D0001092940510929505109296051092970508
:1026E000109298051092990580E480939A05EFEE78
:1026F000F4E080E1DF011D928A95E9F7C091FD03C6
:10270000EC2EF12CC230B0F4870183E0000F111FD2
:102710008A95E1F701511B4FC8010E940C108823D4
:1027200021F0CF5FC093FD03E9CF88E0F80111925B
:102730008A95E9F71092FF0481E0809300054FEE3F
:1027400054E090E080E08E159F05A9F0E1E5F4E00B
:1027500030E020E06191DA01A20FB31F7C91761383
:1027600018C02F5F3F4F28303105A1F78093FF0439
:1027700081111092000580910005813021F4C23052
:1027800010F410920005CF911F910F91FF90EF90E0
:1027900008950196485F5F4FD6CFEF92FF920F9357
:1027A0001F93CF93DF93CDB7DEB7E3970FB6F894BF
:1027B000DEBF0FBECDBFE82E1BAA83E0F82E00E0DF
:1027C00011E08091A30489838091A904805D8A83AC
:1027D0008091A604865A8B83E091A404F091A5040D
:1027E0009F012C543F4FC901B8010E94543C8C8377
:1027F00037FF02C021503F4F3D838091CC048E8330
:10280000809101058F838091A80488878091AD0411
:102810008987E091CD04F091CE049F0120513F4F74
:10282000C901B8010E94543C8A8737FF02C0215079
:102830003F4F3B878091BB048C8780910B018D8734
:1028400080910A018E878091AF048F878091180153
:10285000888B80911701898B809116018A8B8091DA
:10286000AB048B8B809102018C8B809101018D8B4D
:102870008091BA048E8B809121018F8B80912001F1
:10288000888F80911F01898F8091AC048A8F8091FD
:10289000A0048B8F30918A0420918B04832F922F78
:1028A000B8010E94543C8C8F832F922F97FF02C057
:1028B00081509F4F9D8F30918C0420918D04832FE8
:1028C000922FB8010E94543C8E8F832F922F97FF36
:1028D00002C081509F4F9F8F8091830488A3809175
:1028E000B60489A38091B7048AA38091B5048BA311
:1028F0008091B9048CA38091B1048DA38091A1042F
:102900008EA3809114018FA38091130188A78091D9
:10291000190189A780911A018AA780911D018BA7AF
:1029200080911C018CA7809122018DA780912301A9
:102930008EA78091B4048FA78091B30488AB809157
:10294000B80489AB8091B0048AABCE0101960E9495
:102950000613CE0101960E94A11262E3CE010196F8
:102960000E94E5079BA9891769F064E170E080E0A7
:1029700090E00E948B07FA94F11023CF8EE00E9422
:102980009B11FFCFEE2031F1CE0101967C0104E6D0
:1029900010E0C8010E943A38F70161917F01681781
:1029A00019F0C8010E9442380F5F1F4F0639110508
:1029B00081F762E3CE0101960E94E507182F86E9B0
:1029C00090E00E943A38181729F0612F86E990E0CC
:1029D0000E944238E3960FB6F894DEBF0FBECDBF1B
:1029E000DF91CF911F910F91FF90EF9008950E947A
:1029F000EC3C8F929F92AF92BF92CF92DF92EF9278
:102A0000FF926A017B012AE534EC41EF54E4CB01EB
:102A1000B6010E94443B9B01AC016BE774E18AEF75
:102A200092E40E9461382BED3FE049E450E40E94BB
:102A3000443B20E030E044E353E40E94F3380E943A
:102A4000EE384B015C012FE232EA4DEE5AE3C7014A
:102A5000B6010E94443B9B01AC016BE37AEA8AE138
:102A60009AE30E946138A70196010E94443B2FE837
:102A700032E44BE352E40E946238A70196010E94BF
:102A8000443B9B01AC0161E875E98BEA91E40E944B
:102A9000613820E030E040E752E40E94F33820E063
:102AA00030E040ED51E40E94623820E030E040E741
:102AB00052E40E94F33820E030E048EB51E40E94F9
:102AC00062386B017C012CEA35EC47E25BE3C5011F
:102AD000B4010E94443B9B01AC01C701B6010E94B6
:102AE0006238FF90EF90DF90CF90BF90AF909F90B3
:102AF0008F9008953F924F925F926F927F928F9244
:102B00009F92AF92BF92CF92DF92EF92FF920F937C
:102B10001F93CF93DF93CDB7DEB7AA970FB6F89484
:102B2000DEBF0FBECDBF4C01362ECA01B901E9A2EE
:102B3000FAA20BA31CA3ADA2BEA2CFA2D8A624E6E4
:102B400031EA45E15AE40E94613820E03DEA4EE076
:102B500057E40E94F3382B013C01BC01A201C401DF
:102B60000E94F9144B015C0121ED36EF4EE959E367
:102B7000C301B2010E94443B25EC30EA4CE057E42B
:102B80000E946238A30192010E94443B25EB3BE383
:102B90004CE853E40E94623869A77AA7182F092FDE
:102BA0006B01E82EF92E20E030E044EB53E4B6014F
:102BB000C7010E943F3B18165CF420E030E044EB74
:102BC00053E4B601C7010E9461386B017C01EBCF71
:102BD00020E030E0A901B601C7010E94E93887FF73
:102BE0000BC020E030E044EB53E4B601C7010E9483
:102BF00062386B017C01ECCF28E03BE048E054E315
:102C0000C301B2010E94443B23EE30E540E358E3A8
:102C10000E946238A30192010E94443B9B01AC01D7
:102C20006CE870EE88E89CE30E94613869837A83DF
:102C30008B839C832BED3FE049E450E4C501B40154
:102C40000E94443B20E030E044E353E40E94F33828
:102C5000698B7A8B8B8B9C8B20E030E040E05FE3CC
:102C60000E94443B0E94FF3B9B01AC010E94443BFD
:102C700069877A878B879C872BED3FE049E450E496
:102C8000B601C7010E94443B20E030E044E353E436
:102C90000E94F3386B017C01AC019B010E946238F9
:102CA0004B015C010E94B13B698F7A8F8B8F9C8FA7
:102CB00028E83AE241E259E3C301B2010E94443BF1
:102CC0009B01AC016DE07FE98CE097E40E946138E4
:102CD000A30192010E94443B2AEB33EC42EB53E404
:102CE0000E9462382BED3FE049E450E40E94443BEF
:102CF00020E030E044E353E40E94F3386D837E83A8
:102D00008F8398870E94B13B6D877E878F87988BD2
:102D1000C501B4010E94EE384B015C0120E030E0B7
:102D200040E850E4C701B6010E94443B0E94B13B19
:102D30006D8F7E8F8F8F98A32D813E814F81588517
:102D4000CA01B9010E9462380E94B13B6D8B7E8B33
:102D50008F8B988F298D3A8D4B8D5C8D69857A8507
:102D60008B859C850E94443B6B017C0129813A81C3
:102D70004B815C81CA01B9010E9462382D853E8574
:102D80004F8558890E94443B9B01AC01C701B601A5
:102D90000E9461386B017C0120E030E040E850E4A3
:102DA00069817A818B819C810E94443B29853A8587
:102DB0004B855C850E94443B2D853E854F85588917
:102DC0000E94443BA50194010E94443B9B01AC013D
:102DD000C701B6010E9462386B017C0120E030E03F
:102DE00040E05FE369857A858B859C850E94443B42
:102DF00029853A854B855C850E94443B2D8D3E8D0F
:102E00004F8D58A10E94443B9B01AC01C701B60104
:102E10000E9461386B017C0120E030E040EA5FE312
:102E200069817A818B819C810E94443B29813A810E
:102E30004B815C810E94443B2D893E894F89588D8E
:102E40000E94443B9B01AC01C701B6010E9461385E
:102E500020E030E044E353E40E94443B2BED3FE0AC
:102E600049E450E40E94F33820E030E040E850E4C8
:102E70000E94443B69877A878B879C8720E030E0FB
:102E800044EB53E469A57AA5812F902F0E943F3B24
:102E900018167CF420E030E044EB53E469A57AA5F1
:102EA000812F902F0E94613869A77AA7182F092FC8
:102EB000E5CF20E030E0A90169A57AA5812F902F08
:102EC0000E94E93887FF0FC020E030E044EB53E474
:102ED00069A57AA5812F902F0E94623869A77AA7E9
:102EE000182F092FE6CF20E030E040E450E46D8158
:102EF0007E818F8198850E94443B0E94B13B69830B
:102F00007A838B839C832AE534EC41EF54E4C3013C
:102F1000B2010E94443B9B01AC016BE774E18AEF74
:102F200092E40E9461382BED3FE049E450E40E94B6
:102F3000443B20E030E044E353E40E94F3380E9435
:102F4000B13B4B015C0169897A898B899C890E941C
:102F5000B13B6B017C012BE831EE4AE657E3C3013C
:102F6000B2010E94443B2DEE37ED4DE95BE30E9438
:102F70006238A30192010E94443B9B01AC016EEABE
:102F800071E185EF9FE30E9461382D853E854F8575
:102F900058890E94443B6D837E838F83988726EFF8
:102FA0003FEC43ED58E3C301B2010E94443B9B0157
:102FB000AC016CE578EC83EA9CE30E9461382D89D2
:102FC0003E894F89588D0E94443B9B01AC016D8125
:102FD0007E818F8198850E9462382B013C012CEE06
:102FE00034E847E959E369817A818B819C810E94A9
:102FF000443B9B01AC01C301B2010E94623829A588
:103000003AA5412F502F0E9462382EE233E74AEB57
:103010005BE30E9461382B013C012CE831EA4CE96A
:103020005BE3C501B4010E94443B9B01AC01C301B9
:10303000B2010E9461382BED3FE049E450E40E9468
:10304000443B20E030E044E353E40E94F3380E9424
:10305000B13B9B01AC01C701B6010E94443B0E94F9
:10306000CE386B017C012BED3FE049E450E469A1CF
:103070007AA18BA19CA10E94443B20E030E044E374
:1030800053E40E94F3384B015C0120E030E044E35C
:1030900053E4C701B6010E94443B2BED3FE049E4F5
:1030A00050E40E94F3382BED3FE049E450E40E94E5
:1030B000443B20E030E044E353E40E94F3386B01EA
:1030C0007C01C501B4010E94EE382B013C01C7010F
:1030D000B6010E94EE3869837A838B839C83C50195
:1030E000B4010E94FF3B4B015C01C701B6010E9485
:1030F000FF3B6B017C0129813A814B815C81C301DB
:10310000B2010E94443B9B01AC0169E071E38EE691
:103110009CEB0E94F3382B013C01A7019601C501ED
:10312000B4010E94443B9B01AC01C301B2010E9467
:1031300061380E945038311001C0905820E030E0D2
:1031400044E353E40E94443B2BED3FE049E450E468
:103150000E94F3382DA13EA14FA158A50E946238CC
:1031600020E030E040E850E40E94443B9B01AC0189
:1031700060E070E084E394E40E94613829853A8538
:103180004B855C850E946138AA960FB6F894DEBF25
:103190000FBECDBFDF91CF911F910F91FF90EF90A8
:1031A000DF90CF90BF90AF909F908F907F906F9067
:1031B0005F904F903F9008952F923F924F925F9271
:1031C0006F927F928F929F92AF92BF92CF92DF9237
:1031D000EF92FF920F931F93CF93DF93CDB7DEB79C
:1031E0002A970FB6F894DEBF0FBECDBF1C016987CA
:1031F0002A013901EA8623E06216710434F431E0D1
:10320000431A51088CE0680E711CB20164597D4E5E
:10321000072E000C880B990B0E949D3920E030EAA4
:1032200046EB53E40E94443B0E94D8396B017C0179
:10323000B3016F5F7F4F072E000C880B990B0E9424
:103240009D3921E03DEC44EF51E40E94443B0E9453
:10325000D8394B015C01C20164E670E00E94543C25
:1032600082E090E0DC01A61BB70BBD01072E000C2D
:10327000880B990B0E949D3969837A838B839C8389
:10328000C20160E971E00E94543C072E000C880BDB
:10329000990B0E949D399B01AC0169817A818B81D8
:1032A0009C810E9462380E946539072E000C880BB1
:1032B000990B0E949D392B013C01A5019401C70186
:1032C000B6010E9462386B017C01B801110F880BB6
:1032D000990B0E949D399B01AC01C701B6010E9468
:1032E00062389B01AC01C301B2010E94623820E048
:1032F00030E94EEB54E40E9461386D837E838F8306
:103300009887F10144805580668077808081918123
:10331000A281B38189839A83AB83BC836301520109
:103320007C018D012D813E814F8158856985C101C8
:103330000E947A1520E030E044EB54E40E94F33818
:103340002D813E814F8158850E9462389B01AC01DE
:10335000E980FA800B811C816985C1010E947A1580
:103360006B017C01AC019B010E94243C811149C08E
:1033700020E030E040E752E4F1016085718582850C
:1033800093850E94443BA70196010E9462386B011D
:103390007C0120E030E0A9010E943F3B20E030E0CA
:1033A00040E05FE387FD28C0C701B6010E94623894
:1033B0000E946539FA8590E080E0FF2311F08CE3EC
:1033C00090E0860F971F2A960FB6F894DEBF0FBEC7
:1033D000CDBFDF91CF911F910F91FF90EF90DF90C4
:1033E000CF90BF90AF909F908F907F906F905F90A5
:1033F0004F903F902F900895C701B6010E94613809
:10340000D7CF8FEF9FEFDFCF2F923F924F925F92F8
:103410006F927F928F929F92AF92BF92CF92DF92E4
:10342000EF92FF920F931F93CF93DF93CDB7DEB749
:103430002D970FB6F894DEBF0FBECDBF6091A904E3
:103440007091AA04072E000C880B990B0E949D39DD
:1034500020E030E040E85EE30E94443B6B017C01E9
:103460006091A4047091A504072E000C880B990BA1
:103470000E949D394B015C016091A6047091A704E4
:10348000072E000C880B990B0E949D3969837A8363
:103490008B839C838D829E82AF82B886C986DA86B2
:1034A000EB86FC86F090020560909D01712C809067
:1034B0009E01912CA0909F01B12C40E3A41A48EFEB
:1034C000B40AEF2C83019401A50161E0CE010196BD
:1034D0000E94DC186C019401A50160E0CE01019608
:1034E0000E94DC188C0161EAC61665E0D6060CF075
:1034F000F0C0813A95400CF0ECC080919B01209186
:103500009A0130E09CE3899F200D311D1124FF209A
:1035100049F0C901CC9624563540803A45E09407DD
:103520000CF49C019090BB0462E0E2E1961631F04D
:10353000E091AB04F0E0E551FE4FE0817E2F66EFB5
:103540006703A0011124400F511FCA01403A5540A2
:1035500010F080E090E06CE370E00E94543C662E36
:10356000782E2090B9043090B104A6018AE0E89F3B
:10357000400D511D1124403A95E0590708F0AEC0A6
:10358000CA016CE370E00E94543CF62EE82E409194
:10359000B60450E09091B404E091B304F0E06CE321
:1035A000969FE00DF11D11247091B8047D87C9012B
:1035B0008E1B9F0BDC01A056BA4F782F892E97FFE8
:1035C00002C07A2F8B2EA091B004B0E0BD846CE3D2
:1035D000B69EA00DB11D11245F01EA17FB070CF484
:1035E0005D014090BA045090B504440F551FDA01B4
:1035F000A95FBD4F41E0941274C040920B015092FC
:103600000A0161E09612B8C02092020130920101D5
:1036100082E08230B1F7E0918C04F0918D048090CB
:103620008A0490908B0424E630E040E050E08E164F
:103630009F0694F5092C000CAA08BB08012E000C6B
:10364000220B330B0D2C000CEE08FF08A90198018A
:103650002C193D094E095F09281939094A095B09E6
:10366000A4E6B0E00E94BF3C9F01FF0F440B550B46
:10367000281939094A095B090E948A3C2536310517
:103680004105510524F024E630E040E050E057FFCA
:1036900003C020E030E0A901309384042093830428
:1036A0002D960FB6F894DEBF0FBECDBFDF91CF9140
:1036B0001F910F91FF90EF90DF90CF90BF90AF9050
:1036C0009F908F907F906F905F904F903F902F9042
:1036D000089500EA15E0D12CC12C0FCF80E090E0D6
:1036E00050CF44E0941243C0ED90FC906D8568315A
:1036F00010F570EAE71675E0F706BCF52E173F07E0
:10370000A4F1B7010E94543C6F5F7F4F6E9DC001D2
:103710006F9D900D7E9D900D11248E0F9F1FA816FA
:10372000B9061CF16CE370E00E94543C60930B01FD
:1037300080930A0166CF80EAE81685E0F806ACF4CB
:10374000872F982DB7010E94543C6F5F7F4F6E9D6D
:10375000C0016F9D900D7E9D900D11248E0F9F1FB7
:1037600060EA75E00E94543CDDCFCF01DBCFF092E0
:103770000B01E0920A0145CF6092020170920101B3
:1037800047CF64EC79E080E090E00E948B071092D4
:10379000CA041092070510920605109285040C9435
:1037A000041A2F923F924F925F926F927F928F9264
:1037B0009F92AF92BF92CF92DF92EF92FF920F93C0
:1037C0001F93CF93DF93182F80919701811111C020
:1037D00080910105823069F4909100058091FF0489
:1037E000981739F0D1E08091E7049091E804892B93
:1037F00009F4D0E00091BE04C0E0002329F0C0919C
:103800009F04C111C0919E048CE497E00E942B0597
:1038100081E08093A60582E08093AB058091A304AC
:10382000EAE88E2EE2E09E2E811104C07CE8872E0D
:1038300072E0972E113009F03AC28091CA0481508B
:10384000833008F0F8C042EF52E0011102C04EE8A8
:1038500052E066E477E090E080E00E946A11809197
:10386000CA040E94E80C2B013C01C0908604D09051
:103870008704E0908804F09089040E94BE0721E04C
:103880002093AB059701860108511C4F2F4F3F4FE6
:10389000040D151D261D371D68017901C61AD70AAA
:1038A000E80AF90AB701A60187E795E00E94E20A53
:1038B00062EFA62E62E0B62E6501750185019C01BE
:1038C00045E357E066E070E090E080E00E94CF10B2
:1038D00027E047E06FE78DE995E00E94210E2091F7
:1038E000D1043091D2042F3F320711F42EEF3FEF75
:1038F0005FE9C52E52E0D52E6EE9E62E62E0F62E87
:10390000DD2361F1A8EEB3E00E94A93C2B013C014C
:103910002EEF3FEF40E050E00E94683CCA01B90141
:103920002AE030E040E050E00E94683CAB01BC017E
:1039300020E080EE93E00E94060A6C01C301B20110
:103940002CEE3FEF49E050E00E94683CBA01A9012B
:1039500020E084ED93E00E94060A7C0180919701AB
:1039600081118FC18091EB049091EC040E94F309C6
:103970000E94980A42EFA42E42E0B42E84019C01DA
:1039800047ED56E064E070E090E080E00E94CF10E8
:1039900089EC95E00E942B0582E08093A605CC235C
:1039A00029F08091C804873009F46EC14091A201CA
:1039B00050E070E060E021E084ED93E00E94060AB0
:1039C0007C01C11165C14091A30150E070E060E04D
:1039D00021E087E794E00E94060A8C01C1115FC1D3
:1039E0004091A40150E070E060E021E087E795E0BD
:1039F0000E94060A22EFA22E22E0B22E65019C014F
:103A000042EC55E062E070E08CE090E00E94CF1064
:103A1000DF91CF911F910F91FF90EF90DF90CF90AA
:103A2000BF90AF909F908F907F906F905F904F90DE
:103A30003F902F9008951091A50180910205882351
:103A400041F08091A401811104C01F5F183009F476
:103A500011E081E08093AB05CC2329F08091C8046C
:103A6000843009F4E9C04091A80150E070E060E0C2
:103A700021E087E794E00E94060A6C01CC2329F03C
:103A80008091C804833009F4DCC0E091A701E150C3
:103A9000FF0BEE0FFF1FED5CFD4FE080F180C111C9
:103AA000D4C04091A60150E070E060E020E087E7DC
:103AB00095E00E94060AC111D3C0212F2150330B7B
:103AC000F901EE0FFF1FEB5DFD4F20813181409129
:103AD000A6014A3008F0CFC045E257E002EFA02E21
:103AE00002E0B02E8C0161E070E090E080E00E9486
:103AF000CF101091CB0434E6139FC00111242EE0A7
:103B000030E0B9010E94543C462F5CE0159FC00193
:103B10001124B9010E94543C82E28093EC03EDEE43
:103B2000F3E080E090E6861708F09FE591938F5FC1
:103B30008C30C1F78BE38093F9031092FA0350E0C5
:103B400070E060E020E087E795E00E94060A13300D
:103B500008F094C02091BE04222309F48FC02FEEF8
:103B600032E0B2EFAB2EB2E0BB2E65011CEEE12ECF
:103B700013E0F12E8C014EE057E066E070E090E03B
:103B800080E00E94CF1080911801882309F4A7CE0D
:103B90002091190130E050E040E0542F432F322FA4
:103BA000222780911A01280F311D411D511DA8EEB9
:103BB000B3E00E94BF3CAB01BC0180EE93E00E94E9
:103BC000E20A5C014091130150E070E060E021E006
:103BD00084ED93E00E94060A6C014091140150E0CC
:103BE00070E060E021E087E794E00E94060A7C0133
:103BF000E0911701E150FF0BEE0FFF1FED5CFD4F51
:103C0000008111814091160150E070E060E020E0F9
:103C100087E795E00E94060A209116014DEF56E0D5
:103C20002A3010F04CEE56E09C0167E070E090E026
:103C300080E00E94CF1053CE50EFC52E52E0D52E1B
:103C40001FCF3FEEE32E32E0F32E8091C804823086
:103C500009F027CF8091A6018A3050F481EF92E0DD
:103C60002091C804213009F028CF2FEE32E02FCF69
:103C700080EF92E0F5CF46E157E030CF2AE932E01D
:103C800070CF81EA92E076CE36EAE32E32E0F32E70
:103C90008091C804863009F096CE06EA12E0809141
:103CA000C804853009F09CCE86EA92E0A3CE12309B
:103CB00009F066C28BE10E949B110E948911CC23FE
:103CC00031F08091C80442EF52E0813049F0E09138
:103CD000BB04F0E0EE0FFF1FE55EFD4F4081518118
:103CE00069EB75E082E090E00E946A11D091BB041C
:103CF000D13069F010910B01B0900A0100910201DE
:103D000040910101D1111DC027E043E022C2109172
:103D1000BA04B090B5040091B9044091B104CC2329
:103D200009F4C9C68091C804853031F0843009F0A7
:103D300082C1083109F081C150EFC52E52E0D52E65
:103D400087C1D43061F7E091B604CC2321F0809193
:103D5000C8048230C9F0AE2FB0E0AA0FBB1FA95F24
:103D6000BD4F8D919C918C3391050CF49FC609EA4F
:103D700012E0C1110BC06CE370E00E94543CAB0137
:103D8000770F660B770B1EC00FEE12E08091C80410
:103D9000823051F4EE2329F0E45080EF92E0E430D9
:103DA000B0F481EF92E013C0F0E0EE0FFF1FE95F87
:103DB000FD4F808191818C339105ECF6AC01990F18
:103DC000660B770B20E087E795E00E94060AF2EF8A
:103DD000AF2EF2E0BF2E650175019C014DEA55E062
:103DE00063E070E090E080E00E94CF10CC2329F0E7
:103DF0008091C804873009F402C14091B00450E0BA
:103E000070E060E021E080EE93E00E94060A6C0121
:103E1000C111F9C04091B80450E070E060E021E0C9
:103E200084ED93E00E94060A7C01C111F5C0409127
:103E3000B30450E070E060E021E087E794E00E9486
:103E4000060A8C01C111EFC04091B40450E070E04B
:103E500060E021E087E795E00E94060A2091B8041F
:103E600047E855E0283151F4CC2331F02091C804C3
:103E700048E755E0263011F04AE955E062EFA62EFA
:103E800062E0B62E9C0164E070E090E080E00E9469
:103E9000CF108091BE04882371F08091C8048830CF
:103EA00051F480919F04882331F080919E0442EF69
:103EB00052E081110FC0E091AF04F0E0EE0FFF1F60
:103EC000E950FD4F6591749187E795E00E94333882
:103ED00047E755E001E010E0D43011F010E000E0D9
:103EE00063E275E0C80104960E946A11E090AD0497
:103EF000F090AE0482E38E9DA0018F9D500D1124A1
:103F0000052E000C660B770B20E087E795E00E94FA
:103F1000060ACC2331F02091C80464E175E0293011
:103F200061F02091BB046FEE74E0223031F06DED52
:103F300074E0EF2811F062E075E0AC01C80105966D
:103F40000E946A11D43039F1CC2329F08091C80441
:103F50008A3009F4F6C04091AC04413009F4F4C051
:103F60008091BB04823009F4EFC08CEB92E04423D3
:103F700059F04150550B052E000C660B770B20E0D5
:103F800087E795E00E94060AAC016CEC74E086E0DD
:103F900090E00E946A118091BB049EEF980F9230CE
:103FA00008F0D5C0CC2331F09091C80442EF52E024
:103FB0009B3069F047EB52E0823049F0E091AB046E
:103FC000F0E0EE0FFF1FE150FE4F4081518164ECA5
:103FD00074E087E090E0DF91CF911F910F91FF9007
:103FE000EF90DF90CF90BF90AF909F908F907F9099
:103FF0006F905F904F903F902F900C946A11E0EF7C
:10400000CE2EE2E0DE2E8091C804863009F002CF89
:1040100070EFE72E72E0F72E8091C804853009F02A
:1040200006CF00EF12E08091C804843009F00CCF75
:1040300080EF92E013CF083179F150E070E060E05A
:1040400021E080EE93E00E94060A6C01CC2351F03F
:104050008091C804843029F134EBE32E32E0F32E52
:10406000083151F0402F50E070E060E021E084ED35
:1040700093E00E94060A7C01C11117C0183109F4AF
:1040800028C54B2D50E070E060E021E087E794E028
:104090000E94060A4C012DC041EBC42E42E0D42EF2
:1040A000D7CF20EFE22E22E0F22E8091C804833099
:1040B00021F0823079F4183181F490EF892E92E06A
:1040C000992E8091C804823049F1183191F484EB23
:1040D00092E028C0183109F4FAC44B2D50E070E08A
:1040E00060E021E087E794E00E94060A4C01C111DC
:1040F000E8CF412F50E070E060E021E087E795E0F5
:104100000E94060A40E355E0083191F044E555E08D
:104110000FC081EB882E82E0982ED3CF80EF92E003
:10412000183181F747E655E0083111F042E455E0D7
:1041300012EFA12E12E0B12E84019C0163E070E029
:10414000A4CE82EF92E020CF87EB92E01DCF27E054
:1041500047E06FE78DE995E0DF91CF911F910F91D7
:10416000FF90EF90DF90CF90BF90AF909F908F9097
:104170007F906F905F904F903F902F900C94210E06
:10418000133009F0EEC08CE10E949B110E9489114E
:10419000C090A904D090AA04C60164E070E00E9417
:1041A000543C02EF12E0009781F097FF03C0919515
:1041B0008195910900EC12E08130910531F004EC19
:1041C00012E0029711F008EC12E0A601D7FE02C03F
:1041D0004D5F5F4F5595479555954795052E000CBA
:1041E000660B770B20E087E795E00E94060A2CEC2F
:1041F00032E0D7FE0AC023E0C20ED11C37E0C3165E
:10420000D10408F0A2C02FE932E0CC2309F4A0C009
:104210004091C804413009F09BC048EB54E062EF84
:10422000A62E62E0B62E650178018C0162E070E096
:1042300090E080E00E94CF10CC2331F08091C80440
:1042400042EF52E0823049F0E091A804F0E0EE0F36
:10425000FF1FEB50FE4F4081518164E974E083E021
:1042600090E00E946A11C090A604D090A704C601F5
:10427000099601EFE02E02E0F02E439720F012EFB6
:10428000E12E12E0F12EA6010D2C000C660B770B2F
:1042900020E087E795E00E94060A2CEC32E0D7FE8A
:1042A00002C022EF32E0CC2309F455C04091C8048B
:1042B000433009F050C048E854E0D2EFAD2ED2E0D0
:1042C000BD2E65018C0164E070E090E080E00E940A
:1042D000CF10E090A404F090A504A7010F2C000CCF
:1042E000660B770B20E087E795E00E94060A2CEC2E
:1042F00032E0F7FE02C022EF32E0CC2379F14091A8
:10430000C804443059F541E654E0C2EFAC2EC2E097
:10431000BC2E650175018C0165E070E090E080E0E5
:104320000E94CF104091830450918404052E000C0C
:10433000660B770B20E087E795E00E94060AAC0148
:104340006EE674E086E090E046CE22EF32E05DCF8C
:1043500048EA54E064CF4AE754E0AFCF42E554E086
:10436000D4CF143009F041C18DE10E949B110E940D
:104370008911CC2331F08091C80442EF52E08130A2
:1043800049F0E0910105F0E0EE0FFF1FE151FE4F13
:104390004081518167E474E082E090E00E946A11FC
:1043A000CC2331F08091C80442EF52E0823041F0DA
:1043B0008091A3044EEC52E0811102C049ED52E01D
:1043C00069E374E083E090E00E946A11D091B70441
:1043D0005AE0D59FC00111248E5D9E4F0E94F309C3
:1043E0006AE070E00E94543C6B01CC2321F0809184
:1043F000C804843019F18091A1049091A2042AE0AC
:10440000289FA001299F500D1124052E000C660B3A
:10441000770B20E087E794E00E94060A7C0101EE1A
:1044200012E0C11110C0D11151C08CEB92E021EF0C
:10443000822E22E0922E01EE12E0CDC0A0EFEA2EF5
:10444000A2E0FA2E87018091C804833059F0D1117F
:1044500047C3C11130C08CEB92E031EF832E32E0C4
:10446000932EB9C0F1EF8F2EF2E09F2E84E6C8168E
:10447000D1040CF0ACC080EF92E0D11132C072EFE9
:10448000A72E72E0B72E6801840120EF32E049E2E6
:1044900054E064E070E090E080E00E94CF10D091A2
:1044A000A0044D2F50E070E060E020E087E795E049
:1044B0000E94060A32C0E1EF8E2EE2E09E2E83308B
:1044C000A9F2D11105C08CEB92E085C001EE12E09B
:1044D000A601DD0C660B770B20E087E795E00E94D4
:1044E000060A45E154E072EFA72E72E0B72E68018C
:1044F00084019C0164E070E090E080E00E94CF10B5
:10450000D091A0044D2F50E070E060E020E087E7FC
:1045100095E00E94060ACC2331F02091C80463E0A4
:1045200074E0253031F06AED73E0DD2311F06FEEB9
:1045300073E0AC0185E090E00E946A11E090CD0448
:10454000F090CE04A7010F2C000C660B770B20E037
:1045500087E795E00E94060A2CEC32E0F7FE02C0E5
:1045600022EF32E0CC23D1F14091C8044630B1F5BE
:104570004BEC53E062EFA62E62E0B62E65017501AA
:104580008C0166E070E090E080E00E94CF10CC23C8
:1045900021F08091C804873021F14091CC0450E093
:1045A00070E060E020E087E795E00E94060A0DEAEF
:1045B00012E022EFA22E22E0B22E650175019C01CD
:1045C00043EA53E067E070E090E080E01FCA8FEEBE
:1045D00092E0D11186CF49E254E085CF46EB53E01B
:1045E000C9CF02EF12E0C801E4CF153009F09EC038
:1045F0008EE10E949B110E948911809121018111FD
:1046000007C042EF52E065E973E082E090E0E3CC5E
:10461000C2E1D1E0E2E08E2E912CFDE42F2EADE23E
:104620007A2EB3E53B2E1BE4412E09E4502E80E5A3
:10463000682E8F85882309F45DC0EB85F0E075E076
:10464000F595E7957A95E1F71E2FEE2319F0E63000
:1046500009F05AC0A889B0E0BA2FAA278989A80F03
:10466000B11D28EE33E00E94B83CAB01BC0116300E
:1046700069F42092E0037092E10382EE93E00E94DD
:10468000E20A50EEA52E53E0B52E05C080EE93E071
:104690000E94E20A5C014A8550E070E060E021E09F
:1046A00084ED93E00E94060A6C014B854F7150E047
:1046B00070E060E021E087E794E00E94060A7C0158
:1046C000EE85E150FF0BEE0FFF1FED5CFD4F00810B
:1046D00011814D8550E070E060E020E087E795E0D3
:1046E0000E94060A9C0141E853E0B40190E080E09A
:1046F0000E94CF102FEF821A920A299638E0831673
:10470000910409F096CF84C93092E0034092E1030E
:104710005092E2036092E3037092E403E257FC4F8D
:10472000E491E093E5031092E603ABCF163009F075
:104730007CC18FE10E949B110E9489118091970199
:10474000811168C18091EB049091EC040E94F309FF
:104750000E94980A32EFA32E32E0B32E6501750154
:1047600084019C0141E753E062E070E090E080E06A
:104770000E94CF1040916F0150E070E060E021E0B6
:1047800080EE93E00E94060A6C014091700150E0B7
:1047900070E060E021E084ED93E00E94060A7C0175
:1047A0008091E9049091EA040E94F3090E94980A1A
:1047B0009C0146E653E063E070E090E080E00E94F8
:1047C000CF1040917A0150E070E060E021E080EE8F
:1047D00093E00E94060A6C0140917B0150E070E07A
:1047E00060E021E084ED93E00E94060A7C01809164
:1047F0007701909178010E94F3090E94980A9C0128
:104800004BE553E064E070E090E080E00E94CF1060
:104810000091D1041091D2040F3F100711F40EEF54
:104820001FEF4091E7045091E80470E060E020E061
:1048300084ED93E00E94060A7C01DD2309F4EDC0BB
:104840009801A8EEB3E00E94A93C4B015C012EEF59
:104850003FEF40E050E00E94683CCA01B9012AE005
:1048600030E040E050E00E94683CAB01BC0120E039
:1048700087E794E00E94060A8C01C501B4012CEE82
:104880003FEF49E050E00E94683CBA01A90120E0F6
:1048900087E795E00E94060A22EFA22E22E0B22EC0
:1048A00065019C0148E453E065E070E090E080E041
:1048B0000E94CF10DD2309F4B5C02091CF043091C0
:1048C000D0042F3F320711F42EEF3FEFA8EEB3E0F4
:1048D0000E94A93C4B015C0140915A0150E070E0FC
:1048E00060E021E080EE93E00E94060A6C014091B6
:1048F0005B0150E070E060E021E084ED93E00E9415
:10490000060A7C01C501B4012EEF3FEF40E050E004
:104910000E94683CCA01B9012AE030E040E050E062
:104920000E94683CAB01BC0120E087E794E00E9454
:10493000060A8C01C501B4012CEE3FEF49E050E0BE
:104940000E94683CBA01A90120E087E795E00E9437
:10495000060AC2EFAC2EC2E0BC2E9C014BE353E032
:1049600066E070E090E080E00E94CF10209162014C
:10497000309163012F3F320711F42EEF3FEFA8EE85
:10498000B3E00E94A93C4B015C014091650150E0FD
:1049900070E060E021E080EE93E00E94060A6C0186
:1049A0004091660150E070E060E021E084ED93E02A
:1049B0000E94060A7C01C501B4012EEF3FEF40E0E2
:1049C00050E00E94683CCA01B9012AE030E040E0B2
:1049D00050E00E94683CAB01BC0120E087E794E016
:1049E0000E94060A8C01C501B4012CEE3FEF49E09C
:1049F00050E00E94683CBA01A90120E087E795E0F9
:104A00000E94060AB2EFAB2EB2E0BB2E9C014EE232
:104A100053E0D8CD81EA92E09DCE0FE912E08EE915
:104A200092E03ACF27E046E094CB173011F00C9497
:104A3000081D80E20E949B110E948911CC2331F055
:104A40008091C80442EF52E0813079F0E091510149
:104A5000F0E0EE0FFF1FE950FD4F6591749187E77D
:104A600095E00E94333847E755E061E273E082E069
:104A700090E00E946A1181E20E949B1182E20E94F2
:104A80009B1183E2DF91CF911F910F91FF90EF90E7
:104A9000DF90CF90BF90AF909F908F907F906F905E
:104AA0005F904F903F902F900C949B110DEA12E075
:104AB000C1116CC983C954EBE52E52E0F52E61EBB0
:104AC000C62E62E0D62E083109F4D8CAB6CAC11182
:104AD00020CB84EB92E041EB842E42E0942E22CB5B
:104AE000C111EDCCF5CC1F920F920FB60F9211248D
:104AF0008F939F93AF93BF9380914204909143040F
:104B0000A0914404B09145040196A11DB11D80936C
:104B1000420490934304A0934404B09345048091CD
:104B2000410493E0980F9D37F0F4909341048091F5
:104B3000460490914704A0914804B091490401961D
:104B4000A11DB11D8093460490934704A09348048F
:104B5000B0934904BF91AF919F918F910F900FBE79
:104B60000F901F9018958A578093410480914204BA
:104B700090914304A0914404B09145040196A11D75
:104B8000B11D8093420490934304A0934404B093D6
:104B90004504CDCF1F920F920FB60F9211242F9381
:104BA0003F934F935F936F937F938F939F93AF93B5
:104BB000BF93EF93FF93F0E0E0E00995FF91EF9151
:104BC000BF91AF919F918F917F916F915F914F9125
:104BD0003F912F910F900FBE0F901F9018951F922D
:104BE0000F920FB60F9211242F933F934F935F9321
:104BF0006F937F938F939F93AF93BF93EF93FF93A5
:104C0000E0914F04F09150040995FF91EF91BF910D
:104C1000AF919F918F917F916F915F914F913F9154
:104C20002F910F900FBE0F901F9018951F920F920B
:104C30000FB60F9211242F933F934F935F936F936F
:104C40007F938F939F93AF93BF93EF93FF93809145
:104C5000B900887F803609F44AC0F0F5883209F43B
:104C6000A7C018F5803109F49BC0B8F4882309F473
:104C7000F9C0883009F494C0FF91EF91BF91AF91D2
:104C80009F918F917F916F915F914F913F912F9164
:104C90000F900FBE0F901F901895883109F488C0AF
:104CA000803251F78093500514C0803409F49DC0C0
:104CB00040F48033B9F38833F9F68093500585ECDE
:104CC000B0C0803509F485C0883509F496C08834B1
:104CD00099F60E94FC07D0CF883909F48CC038F5CA
:104CE000883729F050F4883611F0803729F683E0B0
:104CF000809352051092400457C0883809F47BC055
:104D0000803919F0803809F0B7CF809140048032A3
:104D100008F071C0E091400481E08E0F8093400460
:104D20008091BB00F0E0E05EFB4F80833DC0803BA4
:104D300039F0E0F4803A09F479C0883A09F09CCF60
:104D400084E08093520510921F0410921E04E0919B
:104D50004C04F0914D04099580911E0481110FC0FF
:104D600081E080931E041092FE0309C0803C09F488
:104D7000A6CF883C09F4A3CF883B09F07DCFE09112
:104D80001F0481E08E0F80931F04F0E0E250FC4F7F
:104D900080818093BB0090911F0480911E0429C0E4
:104DA00080912D058093BB0085EC8093BC0064CF7F
:104DB00090914F0580914E05981758F5E0914F0559
:104DC00081E08E0F80934F05F0E0E25DFA4F808125
:104DD000E9CFE0914F0581E08E0F80934F058091E0
:104DE000BB00F0E0E25DFA4F808390914F05809127
:104DF0004E059817C8F285E8D8CFE0914F0581E0BD
:104E00008E0F80934F058091BB00F0E0E25DFA4F7A
:104E100080838091510581115CCF81E080932C05C6
:104E200084EA8093BC001092520526CF85EC8093D3
:104E3000BC001092520580914004803230F4E09121
:104E40004004F0E0E05EFB4F10826091400470E0AF
:104E5000E0914A04F0914B0480E294E009951092AD
:104E600040040ACF1092500534CF1F920F920FB614
:104E70000F9211248F93809109058F5F809309050C
:104E80008F910F900FBE0F901F901895E3E8F5E0FB
:104E90001382128288EE93E0A0E0B0E084839583D1
:104EA000A683B7838EE692E091838083EDE9F5E0F7
:104EB00013821282128614861386158681E08687F5
:104EC00080E892E09183808357985F98E4ECF9E062
:104ED000E491AFE8B5E0EC93E0EBF9E0E491F0E0C9
:104EE000EE0FFF1FE156F64F8591949112969C9319
:104EF0008E9311971B961C921B971D961C921D97C3
:104F00001C961C921C971A961C921A9719961C9222
:104F1000199718961C92189717961C921797169621
:104F20001C92169715961C92159714961C9214971E
:104F300013961C920895CF93DF93CDB7DEB7C25678
:104F4000D1090FB6F894DEBF0FBECDBFF89482E84A
:104F500080937A0083E084BD85BD80916E0081607E
:104F600080936E0081E0809380009BE090938100AD
:104F70008093B00094E09093B1001092C1007894B7
:104F80008E010C5C1F4F98E0D8011D929A95E9F7AD
:104F900098E129E20FB6F894A895909360000FBEAF
:104FA00020936000A895FE0131964F0193E3DF0145
:104FB0001D929A95E9F710922B0510922A051092EE
:104FC0005405109276051092520580935105109267
:104FD0002C05449A459A8091B9008E7F8093B90040
:104FE0008091B9008D7F8093B90088E48093B800E8
:104FF00085E48093BC0088E496E090934D04809310
:105000004C0489E496E090934B0480934A046AE050
:1050100070E080E090E00E948B07209A289A509AD6
:105020006CE271E086E990E00E94640B399A419845
:105030006AE070E080E090E00E948B07419A6AE0AD
:1050400070E080E090E00E948B0789E08093AC05DF
:105050008AE08093AD05219A229AFFB6F894809158
:105060004E0481111EC0E3EBF9E08491E7ECF9E016
:105070009491E82FF0E0EE0FFF1FE45DF64FA5914D
:10508000B491EC91E92321F461E08AE00E94CA0521
:10509000229A8CB580618CBD8CB580648CBD259ABC
:1050A000239A80914E048F5F80934E04FFBE10922E
:1050B000A1051092A205ECE8F9E0C590D490EEE8C5
:1050C000F9E0B490EFE8F9E0E491E093A305E0E9BA
:1050D000F9E0E491E093A405E1E9F9E0E491E093DB
:1050E000A505F12CE12CEB1460F4F601EE0DFF1D8B
:1050F00064918DE995E00E94EF0DBFEFEB1AFB0A7A
:10510000F2CF8DE995E00E94570E61E88DE995E0B8
:105110000E94EF0D60E28DE995E00E94EF0D8DE9B0
:1051200095E00E94570E80E00E949B116CE271E0B6
:1051300080E090E00E948B0781E08093AB01529861
:105140005A9A5198599A54985C9A53985B9A8091BC
:10515000680084608093680080916D008260809315
:105160006D0080916D00886080936D0080916D006E
:10517000806180936D00DA9A559A60E085E00E9424
:10518000CA053A9888B188B96AE070E080E090E09A
:105190000E948B07C4010E94A11262E3C4010E9415
:1051A000E5079BA9891709F493C08DE995E00E9452
:1051B000570E82E00E949B11740104E610E0C801C2
:1051C0000E943A38F70181937F010F5F1F4F073923
:1051D0001105A9F762E3C4010E94E507682E7BA8C8
:1051E00081E08093AB0523EE32E0671411F02BEEE3
:1051F00032E062EFA62E62E0B62E650175018501F0
:105200004BE759E064E070E090E080E00E94CF104E
:1052100082E08093AB0523EF32E0671411F021EFB9
:1052200032E052EFA52E52E0B52E650175018501E1
:1052300048E659E066E070E090E080E00E94CF1020
:10524000671002C0499935C08DE995E00E94570E5C
:1052500083E00E949B1142E350E066E379E0C401E1
:105260000E942A38C4010E9406138AE180939F019C
:1052700085E080939C010091990110919A01209101
:105280009B0135E040919D0150919E016AE1709132
:10529000A0018091A1010E94031204E610E06FEFCB
:1052A000C8010E9442380F5F1F4F07391105B9F737
:1052B000FFCF89B18DE995E00E94570EC4010E948D
:1052C000061384E00E949B1185E00E949B11FFCF92
:1052D00089818093A3048A818053990B9093AA04B7
:1052E0008093A9048B818A55990B9093A70480938E
:1052F000A6048D81282F30E0322F22278C81820F47
:10530000932F911D845B91099093A5048093A4042D
:105310008E818093CC048F818093010588858530B0
:1053200008F081E08093A804898590E09093AE0412
:105330008093AD048B85282F30E0322F22278A8579
:10534000820F932F911D805F91099093CE048093DB
:10535000CD048C858093BB048D8580930B018E8555
:1053600080930A018F858093AF0488898093180108
:105370008989809317018A89809316018B8980938C
:10538000AB048C89809302018D89809301018E8901
:105390008093BA048F8980932101888D80932001A6
:1053A000898D80931F018A8D8093AC048B8D8093AF
:1053B000A0048D8D90E0982F88272C8D820F911D51
:1053C00090938B0480938A048F8D90E0982F882788
:1053D0002E8D820F911D90938D0480938C0488A153
:1053E00090E0909384048093830489A18093B60411
:1053F0008AA18093B7048BA18093B5048CA180937C
:10540000B9048DA190E09093B2048093B1048EA171
:1054100090E09093A2048093A1048FA18093140143
:1054200088A58093130189A5809319018AA580938B
:105430001A018BA580931D018CA580931C018DA55D
:10544000809322018EA5809323018FA58093B404BD
:1054500088A98093B30489A98093B8048AA980930A
:10546000B00484E180937F018093740180936A018A
:1054700080935F010E945C0C81E00E949B116CE2B2
:1054800071E080E090E00E948B0788E60E949A0518
:1054900060E083E895E00E9471080E943D05882342
:1054A00029F0589A8AE10E949B11FFCF81E090E099
:1054B0000E9489100E94B70587FF0FC088E60E94EE
:1054C0009A0560E083E895E00E94710860E083E857
:1054D00095E00E9471080E943D0565E070E080E063
:1054E00090E00E948B0761E270E080E090E00E9413
:1054F0008B0788E60E949A0567E083E895E00E94A2
:10550000710860E183E895E00E9471080E943D0502
:10551000882329F0589A89E00E949B11FFCF8AE0E6
:105520000E949B116CE271E080E090E00E948B078A
:10553000A8950E94C20B8093CB0488E280939205C9
:10554000109293051092940510929505109296056D
:1055500010929705109298051092990580E4809317
:105560009A0510929B0510929C05C8010E940C1090
:10557000811113C18BE00E949B116CE271E080E00D
:1055800090E00E948B076CE271E086E990E00E9457
:10559000640B6CE271E086E990E00E94640B6CE2BF
:1055A00071E086E990E00E94640B8DE995E00E942D
:1055B000570E82E496E09093500480934F048091BC
:1055C00069008C70826080936900E89A1E012AE06D
:1055D000220E311CA89560900905A0900805662050
:1055E00011F40C94153810920905A1100C941E3872
:1055F000109207051092060580910505882329F071
:105600000E94DE0F81E08093040588E60E949A05DF
:1056100060E083E895E00E9471080E943D05782EC5
:10562000811177C187E090E00E948910873009F0EE
:1056300070C189E0E8EBF1E0DE01A15BBF4F0190B2
:105640000D928A95E1F70E94B705982F9295977071
:10565000BAE05B2E8F70C82E959DC00C11240E945D
:10566000B705982F92959F708F70E82E959DE00C4E
:1056700011240E94B705982F929593708F70B82EC1
:10568000959DB00C11240E94B705982F92959F709C
:105690008F70082F959D000D11240E94B705982F3B
:1056A00092959F708F70F82E959DF00C11240E949A
:1056B000B705982F92959F708F70182F959D100D9C
:1056C00011240E94B705982F92959F708F70D82E45
:1056D000959DD00C11243BE33C1508F4FBC03E150E
:1056E00008F4F8C067E16B1508F4F4C08FEF800F81
:1056F000873008F0EFC08FEF810F8C3008F0EAC0E0
:105700008FEF8F0D8F3108F0E5C083E68D1508F41B
:10571000E1C06096CFAE60976196EFAE61976296FA
:10572000BFAE629763960FAF63976496FFAE6497C0
:1057300065961FAF65976696DFAE669789E0FE01B6
:10574000E15BFF4FDE01AA5BBF4F01900D928A958E
:10575000E1F789E0FE01EA5BFF4FA9E9B1E00190C2
:105760000D928A95E1F789E0E9E9F1E0DE01A85AB6
:10577000BF4F01900D928A95E1F78091A804823085
:1057800009F4A9C108F097C0813009F4CBC0109288
:10579000020589E0E9E9F1E03DC10E942107882383
:1057A00009F4E8CE82E3E82EF12CC7010E943A38D2
:1057B0008F3FC1F5FFEFEF1AFF0A2AE3E216F1046B
:1057C000A1F710929C0510929B0588E280939205A8
:1057D00010929305109294051092950510929605DB
:1057E00010929705109298051092990580E4809385
:1057F0009A05C8010E940C108823A1F0780102E3E9
:1058000010E0D701DD907D01C8010E943A38D8161A
:1058100021F06D2DC8010E9442380F5F1F4F0A33DF
:10582000110579F711E5E12E14E0F12E02E310E005
:10583000C8010E943A38F70181937F010F5F1F4F23
:105840000A331105A9F70E94581381E594E00E94DC
:10585000DE068EE40E94B40680E00E94B40680E07A
:105860000E94B4068FE70E94B40610910105123021
:1058700030F0909100058091FF04981314C00E94AD
:105880002107882381F08091FF0411118091000588
:10589000F8E08F9FC001112481519B4F0E94DE06CA
:1058A00084E40E94B4068CE00E949B1168E572E0DB
:1058B00080E090E066CE833009F415C1843009F0B1
:1058C00066CFE2E0CE2EEE24E39404E022E040E056
:1058D00069E03AC060E085E00E94CA051092BB040E
:1058E00080E00E94CD1389E0E8EBF1E0D401019063
:1058F0000D928A95E1F71B8287E08C8309811A81DA
:1059000020E037E04D815E816F81788589850E9436
:10591000031260E085E00E94CA05589A88E10E945F
:105920009B11FFCF2091A9043091AA0437FF02C038
:105930002D5F3F4F35952795359527952F5FC22EC3
:10594000E12C0AE040E063E0CE01885A9F4F0E94BC
:10595000230980930205882309F41BCF89E0E9E934
:10596000F1E0DE01DD9601900D928A95E1F78FE17D
:1059700090E09A8389839E838D832EE130E038877F
:105980002F839A8789873C872B879E878D87988B63
:105990008F873A8B298B9C8B8B8B3E8B2D8B988F93
:1059A0008F8B8D2D90E00E94A008882309F4A4C05D
:1059B0008DE190E09C838B8397E1B912A4C0A12F65
:1059C000A150BB0BFD01EE0FFF1FE80DF91D8081FB
:1059D0009181F816190609F094C01C3009F08FC0A7
:1059E000D39411E0FF24F3947FAE2296FFAE22976A
:1059F00023961FAF23972496DFAE249789E0FE01FC
:105A0000FD96DE01D49601900D928A95E1F789E02A
:105A1000FE01F496A2EAB1E001900D928A95E1F7B9
:105A200080919801882321F00E94041A1092980115
:105A3000A1106DC061108DC11091CA048FEF810F4C
:105A4000833008F06EC4812F0E94E80C6B017C014A
:105A500000918504002309F450C460E085E00E94B1
:105A6000CA05002311F10E94BE07C0908604D090A1
:105A70008704E0908804F09089046C197D098E09F0
:105A80009F0928EE33E040E050E00E94683C832FFD
:105A900099278093220120932301133011F40C9451
:105AA00022388093190120931A0110920705109251
:105AB000060510928504133011F40C94F7370E94F8
:105AC000041A80E00E94CD131092CA048DE995E07B
:105AD0000E94570E26C4CC24C394EE24E3940BE01A
