:100000000C94F2040C94EB250C94C6250C941A0560
:100010000C941A050C9431270C941A050C941A05AB
:100020000C941A050C941A050C941A050C941A05D4
:100030000C941A050C941A050C941A050C941A05C4
:100040000C946F250C941A050C941A050C941A053F
:100050000C941A050C941A050C941A050C941A05A4
:100060000C9412260C941A05036EDB363D9A99996E
:10007000993DABAAAA2A3E000000803F072C7AA532
:10008000BA6CC590DA3B9365FC8BBC53F810FD3C11
:100090005692834DBD879D3AB63DCBC9BF5BBE73BB
:1000A000DA0FC93F05A84CCDB2D44EB93836A902F3
:1000B0000C50B9918688083CA6AAAA2ABE00000066
:1000C000803F0664EC1B3C04BC163E3BE5B93CC9D2
:1000D0003C37C29E5A3D660498083EEA69AAAA3E89
:1000E000000000803F00315D484F55520035305DC3
:1000F0004D494E0034305D4D494E0033305D4D4921
:100100004E0032355D4D494E0032305D4D494E0056
:1001100031355D4D494E0031305D4D494E00395D00
:100120004D494E00385D4D494E00375D4D494E00FA
:10013000365D4D494E00355D4D494E00345D4D49AB
:100140004E00335D4D494E00322E355D4D494E0017
:10015000325D4D494E00312E355D4D494E00315DC9
:100160004D494E0033305D5345430031355D5345B5
:100170004300305D5D5D5D5D534B49502028444F29
:1001800055424C452900375757572E504943415047
:100190004F542E434F4D0036484F4C445D4C45461E
:1001A000545D425554544F4E003553454C454354CD
:1001B0005D4455524154494F4E00304D414E5541DA
:1001C0004C003053454E534F520030444941474E46
:1001D0004F5354494300304556454E545300304F19
:1001E0005054494F4E5300304C4F434154494F4EA9
:1001F00000305343484544554C45003045350030A8
:1002000045340030453300305E00324F4E205449B3
:100210004D452053435245454E29003128484F4C07
:1002200044204C4546542042544E003053544F50C5
:100230002057415445522046495253540000305DE6
:100240005D5D5D5D534B495020284D4F4953542906
:1002500000305D5D5D5D5D5D5D534B49502028491B
:1002600043452900305D5D5D5D534B495020285268
:100270004550454154290030453200304531003069
:1002800043414C49420036534E53204F4B003653A6
:100290004E532045520034434C4B204F4B003443C7
:1002A0004C4B2045520030524553544152540000AB
:1002B000003154494D45204C4F5354003052455362
:1002C000544F5245440030524553455400314D453A
:1002D0004D204641494C00324D454D204F4B00309A
:1002E000534352204F4B00AED580A83FD300408DE2
:1002F000142002A1C8DA12817FD9F1DB40A4A6AF95
:100300006B0164015E0156015001480142013C014C
:10031000360130012A0124011E01170110010901D3
:100320000201FB00F400ED00E6004455524154493F
:100330004F4E3D20265E005D2C5D262E26255D2637
:100340003A265E005D275D262E26255D263A265E2E
:10035000004D4F4953545552453A262E26255D28C7
:1003600026295E005D2C5D262E26265D263A265E19
:10037000005D275D262E26265D263A265E00544522
:100380004D50455241545552453A262E26265E0080
:10039000265D265D263A265D2826295E0057444DB7
:1003A000495245004E4F204556454E54532059451D
:1003B000540053435245454E20544D4F55543D2013
:1003C000265D265E00434C4F434B2043414C49423F
:1003D0003D2026265D5345435E00434C4F434B2052
:1003E00043414C49423D205E004D4F4953545552C4
:1003F00045204C494D49543D204F46465E004D4FE7
:10040000495354555245204C494D49543D202625C9
:100410005E004D4F495354555245204C494D495467
:100420003D205E004845415420424F4F53543D20EB
:100430002626202B26265E004845415420424F4F59
:1004400053543D2026265E0054454D5020554E49BC
:10045000543D20265E0053454E534F523D20265EAC
:10046000004C4F4E4749545544453D2026265E00DA
:100470004C4F4E4749545544453D205E004C415435
:1004800049545544453D2026265E004C415449546C
:100490005544453D205E004441594C49474854204D
:1004A000534156494E473D20265E0054494D455A1A
:1004B0004F4E453D20262626265E0054494D455A7E
:1004C0004F4E453D205E004432443D20265E0053A1
:1004D0004B495020575420444159533D20265E003B
:1004E000534541534F4E20434F4D503D204F4646BC
:1004F0005E00534541534F4E20434F4D503D2041E8
:1005000055544F5E00534541534F4E20434F4D507D
:100510003D202B26255E00534541534F4E20434F2F
:100520004D503D205E004455524154494F4E3D20B0
:10053000265E005754313D20263A26205754323D3E
:100540002026265E005754313D202626205754325F
:100550003D20263A265E005754313D20263A26207B
:100560005754323D20263A265E005754313D20260E
:1005700026205754323D2026265E004245473D5DE9
:10058000263A2620454E443D5E004245473D5D26C5
:100590003A2620454E443D5D263A265E00424547B8
:1005A0003D5D263A2620454E443D5D4F46465E0061
:1005B00045564552593D5D265D265E004D4F4445EA
:1005C0003D20265E00263A263A265E0000000B10EB
:1005D0002F0C0000000000000000000000000000E0
:1005E0000000000000000000F8FE060383C3633330
:1005F0001EFEF8071F1E3331303030181F07000071
:100600000C0C0EFFFF0000000000003030303F3FB8
:10061000303030001C1E07030383C3E3773E1C30D9
:10062000383C3E373331303030300C0E07C3C3C353
:10063000C3C3E77E3C0C1C383030303030391F0EDD
:10064000C0E070381C0E07FFFF0000030303030324
:1006500003033F3F03033F7F636363636363E3C35A
:10066000830C1C383030303030381F0FC0F0F8DCCD
:10067000CEC7C3C3C380000F1F393030303030398C
:100680001F0F030303030303C3F33F0F0300000023
:10069000303C0F030000000000BCFEE7C3C3C3E70B
:1006A000FEBC000F1F393030303030391F0F3C7E18
:1006B000E7C3C3C3C3C3E7FEFC0000303030381CBF
:1006C0000E070300000000707070000000000000C2
:1006D00000001C1C1C000000000020202020265EC2
:1006E00000205B5B5B544D505D262E2626204D532B
:1006F000545D262E26255E005B5B2A5D265B5B260D
:100700005D263A265D282629005D5B2A5D265B5B17
:10071000265D263A265D28262900204241545D2682
:1007200025265E002020205D265D265D265D323078
:10073000265E00202020205B265D265D265D32306F
:10074000265E0020205D54494D45204C4546543DD1
:100750005D265E00265E00265E0000000507204143
:10076000000000000000004F00000000003E3E04BA
:100770000404040402057E14042313086462364949
:100780005522500C067F060C001C2241000041221D
:100790001C003846475C3808083E080818307F308F
:1007A000180808080808006060000020100804020B
:1007B0003E5149453E00427F400042615149462139
:1007C00041454B311814127F1027454545393C4AA5
:1007D00049493001710905033649494936064949F5
:1007E000291E00002400003E0000000008142241E1
:1007F00000001414140000412214080201510906DB
:1008000002053A44447E1111117E7F494949363E22
:10081000414141227F4141221C7F494949417F0991
:100820000909013E4149497A7F0808087F00417F54
:1008300041002040413F017F081422417F40404059
:10084000407F020C027F7F0408107F3E4141413E01
:100850007F090909063E4151215E7F091929464653
:100860004949493101017F01013F4040403F1F207C
:1008700040201F3F4030403F631408146307087056
:1008800008076151494543007F41410002040810B7
:10089000200041417F000402010204222222222280
:1008A0003E3E3E3E3EDF02D702CD02C602BC02B152
:1008B00002B002AF02A6029E0296028E0286027F5C
:1008C000027B027702640251023E023D022B021BB0
:1008D000020A0207020302FF01FB01F101E701DE48
:1008E00001D601CA01C201BA01A9019701860172AC
:1008F00001232323232323232323232323232323EA
:10090000232323232323232323235E00005EBCE22F
:10091000613FDD83C29C7E20A3FD1F41009D23BE5D
:1009200046DB65F88C11AF32CA57E97400030C0F2F
:1009300030333C3FC0C3CCCFF0F3FCFF00000000DD
:10094000240027002A0000347DC20001000100F0CD
:100950000000070004000101021300090001010169
:10096000004A02680300000E0012000300000000AD
:100970000000000000001800205D5D7C20205D5B11
:100980005B5B265D5D5B20207C5E0020524553450D
:10099000545D5D262052455452595E00E70219808D
:1009A0004000534B495044415920262F265E0000F9
:1009B00000000023002600290004040404040404A9
:1009C00004020202020202030303030303010204FE
:1009D00008102040800102040810200102040810C1
:1009E0002000422711241FBECFEFD8E0DEBFCDBFCD
:1009F00013E0A0E0B1E0EEE4F9E702C005900D924B
:100A0000A03EB107D9F725E0A0EEB3E001C01D92EA
:100A1000AC3BB207E1F714E0C2EFD4E004C0219789
:100A2000FE010E949A3CC13FD107C9F70E94972757
:100A30000C94A53C0C9400008091AB0120E4829FB3
:100A4000C0011124826080937C0080917A008064D0
:100A500080937A0080917A0086FDFCCF80917800A7
:100A60009091790008959093B7058093B605FC01A5
:100A700024913196E491F22F319719F41092B40534
:100A8000089581E08093B40508952091900581E058
:100A9000213208F044C080916C058111FCCF809117
:100AA0008F0592E090936C0591E090936B059FEF1A
:100AB00090936A051092690520936805AFE6B5E04A
:100AC000E8E4F5E090E0291331C0109247059091D9
:100AD0004705880F892B8093470580914605813013
:100AE00049F510924605809147058093BB0080919F
:100AF000BC0083FDF8CF85EC8093BC0080916C0531
:100B00008230E1F380916A058F3FB1F080916A05F0
:100B10008032A1F080916A05803391F084E01092D8
:100B20006E051092900510926D0508953D913193D8
:100B30009F5FC9CF85EEE0CF80E0F1CF82E0EFCFBD
:100B400083E0EDCF91E090936D0580938F05109237
:100B50006E05109290050895909145058091440589
:100B60002FEF3FEF981748F4E92FF0E0EC5DFA4FD4
:100B7000208130E09F5F90934505C90108959091D1
:100B80004505809144052FEF3FEF981748F4E92F72
:100B9000F0E0EC5DFA4F208130E09F5F90934505D7
:100BA000C90108958091440590914505891B990BD1
:100BB0000895482FE62F282F30E0863009F459C0D9
:100BC00000F58330E1F1853009F44FC04830E0F1A1
:100BD0004E3010F1443108F063C02E50310981E0ED
:100BE00090E0A0E0B0E004C0880F991FAA1FBB1FCF
:100BF0002A95D2F728B1EE2309F44FC0822B88B989
:100C000008958A30C9F18B30D9F18930F9F6809195
:100C100080008F77809380002850310981E090E038
:100C2000A0E0B0E004C0880F991FAA1FBB1F2A953F
:100C3000D2F7E1112EC025B1809582232CC090916E
:100C4000B0009F7D9093B00081E090E0A0E0B0E024
:100C500004C0880F991FAA1FBB1F4A95D2F72BB15A
:100C6000EE23A1F0822B8BB9089594B59F7D94BD9E
:100C7000EBCF94B59F77FBCF809180008F7DCACF5B
:100C80008091B0008F778093B000C6CF809582238B
:100C9000EACF25B1822B85B9089580958223AFCF05
:100CA0000895809122058F5F80932205089508950D
:100CB0000895AF92BF92CF92DF92EF92FF920F937F
:100CC0001F93CF93DF936C017B018B01040F151FE2
:100CD000EB015E01AE18BF08C017D10759F069914A
:100CE000D601ED91FC910190F081E02DC6010995AE
:100CF000892B79F7C501DF91CF911F910F91FF905B
:100D0000EF90DF90CF90BF90AF900895880F991F1C
:100D1000880F991F05970197F1F708951F93CF93B7
:100D2000DF9310919D05C0919E05D0919F05912F55
:100D3000909580FF16C0F8948A8189238A838981DF
:100D4000812B89838AE090E00E9486068A81182B95
:100D50001A83789487E390E0DF91CF911F910C94F0
:100D60008606F8948A8189238A838981812B8983E5
:100D700081E490E00E9486068A81182B1A83789479
:100D800085E090E0E9CF0F931F93CF93DF93082F77
:100D9000C8E0D0E011E081E0902F912309F480E0D9
:100DA0000E948E06110F2197B1F7F894E0919E05ED
:100DB000F0919F05918180919D0580959823918365
:100DC000E0919E05F0919F0592818923828378941A
:100DD000DF91CF911F910F9108950F931F93CF93A0
:100DE000DF938C0185E50E94C306E801085F1F4F71
:100DF00089910E94C306C017D107D1F7DF91CF9127
:100E00001F910F9108950F931F93CF93DF9310912C
:100E10009D05C0919E05D0919F05F8948981812BF5
:100E200089838A81012F009580238A8383E090E063
:100E30000E9486068981802389838AE090E00E944F
:100E40008606C881789485E390E00E9486061C237C
:100E500081E009F480E0DF91CF911F910F91089517
:100E6000FF920F931F93CF93DF9310919D05C09135
:100E70009E05D0919F05F8948981012F00958023CC
:100E8000898378948DE7F82EFA94FF2061F182E04F
:100E900090E00E94860688818123B1F3F8948A81CC
:100EA00080238A838981812B8983789480EE91E0E5
:100EB0000E948606F89489818023898386E490E0E5
:100EC0000E94860688811823C1E009F0C0E078946A
:100ED0008AE991E00E9486068C2FDF91CF911F91C5
:100EE0000F91FF900895C0E0F7CF3FB7F89480913D
:100EF000520490915304A0915404B091550426B526
:100F0000A89B05C02F3F19F00196A11DB11D3FBF41
:100F1000BA2FA92F982F8827BC01CD01620F711D10
:100F2000811D911D42E0660F771F881F991F4A950A
:100F3000D1F708958F929F92AF92BF92CF92DF9296
:100F4000EF92FF926B017C010E9475074B015C01DF
:100F5000C114D104E104F104B9F00E9475076819C5
:100F600079098A099B09683E73408105910580F3E0
:100F700081E0C81AD108E108F10828EE820E23E0CA
:100F8000921EA11CB11CE4CFFF90EF90DF90CF9098
:100F9000BF90AF909F908F9008952FB7F894609175
:100FA0004E0470914F0480915004909151042FBFD2
:100FB0000895CF93DF93EC018A85882329F081502F
:100FC0008A87DF91CF9108959C818E819817C8F709
:100FD000E881F9810084F185E02D42E0CE01099598
:100FE0008C818F5F8C83EDCFDC0180E0615090F0CD
:100FF0009D919827E92FEF70F0E0E45FF64F249180
:10100000E92FE295EF70F0E0E45EF64FE491822F75
:101010008E27ECCF089585ED8093BC008091BC00B5
:1010200084FDFCCF10926C05089520912A04260FB0
:101030003327331F21323105ECF420916C05FC017C
:1010400090E080E0243069F082E00895A0912A04C5
:101050002191AC01465F5B4FA40FB52FB11D2C93BE
:101060000196861798F380912A04680F60932A04EA
:1010700080E0089581E008950895E091450580910C
:101080004405E81730F4F0E0EC5DFA4F808190E021
:1010900008958FEF9FEF0895CF92DF92EF92FF9226
:1010A0000F931F93CF93DF937C01CB018A01209193
:1010B0006D05222389F0EB016B01C40ED51ECC1502
:1010C000DD0569F06991D701ED91FC910190F08106
:1010D000E02DC7010995F3CF642F0E941508C801C0
:1010E000DF91CF911F910F91FF90EF90DF90CF9004
:1010F0000895CF93DF931F92CDB7DEB76983209118
:101100006D052223F9F020919005203258F021E05E
:1011100030E0FC013383228390E080E00F90DF9188
:10112000CF91089580916E05E82FF0E0E159FA4FD4
:10113000998190838F5F80936E058093900581E005
:1011400090E0ECCF61E0CE0101960E941508F7CF48
:101150009C0183709927892B39F4C90164E670E0FA
:101160000E94083C892B59F4C90160E971E00E9492
:10117000083C9C0181E0232B19F080E0089581E078
:101180000895EF92FF920F931F93CF93DF93CDB704
:10119000DEB72C970FB6F894DEBF0FBECDBF7C0133
:1011A000462FFC01238130E02A5F3F4F848181502C
:1011B000990BE7E0F0E0BF010E94083CB901681B11
:1011C000790BCB01BF010E94083C9F01281B390B02
:1011D000C901BF010E94083C11E0180F442399F097
:1011E00037E0439F100D112489EF810F2C960FB625
:1011F000F894DEBF0FBECDBFDF91CF911F910F914D
:10120000FF90EF9008958CE0ECEAF1E0DE0111969A
:1012100001900D928A95E1F7F7018581FE01E80FB3
:10122000F11D0081823049F4F701868190E08053FE
:10123000984F0E94A80881110F5F202F211B330BAC
:10124000C90167E070E00E94083C812F37E0639F8E
:10125000800D1124CBCFAF92BF92CF92EF92FF922D
:101260000F931F93CF93DF935C01162FF22EFC0197
:10127000D581D61729F0C1E06D1780F0C0E00EC00F
:10128000642F0E94C108F5019481C1E0891730F0F4
:101290009813F4CFC1E082818F1580F3D01729F025
:1012A00081E0D01780F080E00EC06E2DC5010E9455
:1012B000C108F5019481981760F09813F4CF81E08C
:1012C00092819C1580F7101730F4CC2331F0C82F91
:1012D00004C081E0F8CFCC23D1F38C2FDF91CF91E4
:1012E0001F910F91FF90EF90CF90BF90AF90089516
:1012F0008F929F92AF92BF92CF92DF92EF92FF9226
:101300000F931F93CF93DF93EC011E81212F30E0C9
:1013100050E040E049015A0181E0881A9108A10893
:10132000B1080D81ADE6B1E00E94733C6B017C0118
:10133000C501B40124E030E040E050E00E943E3CB2
:10134000C20ED31EE41EF51EC501B4012CE93FEF09
:101350004FEF5FEF0E943E3CC20ED31EE41EF51E0F
:10136000802F8150990BFC01EE0FFF1FE55BFD4FB5
:101370002C8180819181280F392F311D032E000C83
:10138000440B550BC20ED31EE41EF51E033058F05D
:10139000812F90E00E94A808882329F09FEFC91AA6
:1013A000D90AE90AF90AC701B601DF91CF911F9165
:1013B0000F91FF90EF90DF90CF90BF90AF909F90F4
:1013C0008F900895CF92DF92EF92FF92CF93DF93A9
:1013D000EC0182EA91E00E9478096B01CE010E9443
:1013E0007809C601861B970BDF91CF91FF90EF9094
:1013F000DF90CF9008952091BB04222371F049E043
:10140000489F9001499F300D1124C90165E070E0AB
:101410000E94083CCB01805C9E4F08958F929F9262
:10142000AF92BF92EF92FF920F931F93CF93DF93F0
:10143000EC01F22EDB01CA010996A11DB11D4397F3
:10144000A105B10508F070C0411551056105710590
:10145000C1F480E38883222309F46FC0898382E08A
:1014600090E08C0F9D1FFC011082CE01DF91CF9187
:101470001F910F91FF90EF90BF90AF909F908F9032
:101480000895E12C77FF09C07095609550954195BE
:101490005F4F6F4F7F4FEE24E3948E018AE0882EDA
:1014A000912CA12CB12CC8018C1B9D0B4115510511
:1014B0006105710581F0CB01BA01A50194010E947B
:1014C0003E3C942F852F605DF80161938F01A90147
:1014D000692F782FE8CFFF2021F0019620E3F80153
:1014E0002083EE2031F0FE01E80FF91F2DE220836A
:1014F0000196FE01E80FF91F10820197BF01DE017E
:101500009D012C1B3D0B281739070CF0AECF2D91F8
:10151000FB013291BF01AD0141505109FA01308305
:10152000FB0120830197ECCFF12C4115510561059A
:10153000710509F0A6CF80E3888381E090E091CF28
:101540004F925F926F927F928F929F92AF92BF92D3
:10155000EF92FF920F931F93CF93DF9300D01F92D0
:10156000CDB7DEB77C012A013B0119821A821B82AA
:10157000CB01BA0128EE33E040E050E00E941C3C71
:1015800049015A01C301B20120E83EEE46E350E0B2
:101590000E941C3CBA01A90110E000E04115510570
:1015A0006105710571F021E0CE0101960E940E0ADD
:1015B0008981F70180838A8181838AE3828303E0C2
:1015C00010E0C501B40120E13EE040E050E00E949F
:1015D0001C3C2CE330E040E050E00E941C3C290120
:1015E0004B015C0121E0BA01A201CE0101960E94EB
:1015F0000E0A0E0D1F1D8981F80180838A81818367
:101600008AE3828321E0B501A401CE0101960E9404
:101610000E0A8981F80183838A8184831582C70138
:101620000F900F900F90DF91CF911F910F91FF902E
:10163000EF90BF90AF909F908F907F906F905F9052
:101640004F900895CF93DF93EB01589ABC01990F07
:10165000880B990B0E949A075898BE01DD0F880BE2
:10166000990BDF91CF910C949A078F929F92AF9232
:10167000BF92CF92DF92EF92FF92CF93DF93FC0164
:10168000EB012A8130E0A0E1BEE00E945D3C6B01ED
:101690007C01298130E0ACE3B0E00E945D3CC60EE5
:1016A000D71EE81EF91E8881C80ED11CE11CF11C52
:1016B000228130E0A0E1BEE00E945D3C4B015C0174
:1016C000218130E0ACE3B0E00E945D3C860E971EC5
:1016D000A81EB91E8081880E911CA11CB11CC701D7
:1016E000B601681979098A099B09DF91CF91FF90AA
:1016F000EF90DF90CF90BF90AF909F908F90089524
:10170000CF92DF92EF92FF92CF93CAE0C12CD12CFF
:1017100076010E941C0561E070E080E090E00E948C
:101720009A070E941C05A091E404B091E5049C0175
:101730000E946C3C2AE096958795779567952A9547
:10174000D1F7072E000C880B990BC60ED71EE81E8A
:10175000F91EC150F1F6C701B6012AE030E040E0C1
:1017600050E00E943E3C243C89E03807DCF12832FE
:101770008AE03807D4F12C388AE03807CCF12E3BC8
:101780008AE03807C4F1203F8AE03807BCF12831ED
:101790008BE03807B4F120348BE03807ACF12E35FC
:1017A0008BE03807A4F12C378BE038079CF1203907
:1017B0008BE0380794F1243A8BE038078CF1283B12
:1017C0008BE0380784F1263D8BE038077CF12E3F13
:1017D0003B407CF18EE090E0CF91FF90EF90DF9066
:1017E000CF90089590E080E0F7CF81E090E0F4CFD3
:1017F00082E090E0F1CF83E090E0EECF84E090E0F3
:10180000EBCF85E090E0E8CF86E090E0E5CF87E0A1
:1018100090E0E2CF88E090E0DFCF89E090E0DCCF9D
:101820008AE090E0D9CF8BE090E0D6CF8CE090E0DA
:10183000D3CF8DE090E0D0CF8EE480937C0062E047
:1018400070E080E090E00E949A0780917A008064C6
:1018500080937A0080917A0086FDFCCF80917A0097
:10186000806480937A0080917A0086FDFCCF20917D
:1018700078003091790050E040E060E070E381E171
:1018800090E00E943E3CC9010895AF92BF92CF9272
:10189000DF92EF92FF920F931F93CF93DF934091CC
:1018A000E7045091E8049A0157FF04C02227332728
:1018B000241B350B80EF90E08C01021B130B2937A2
:1018C00031053CF4B901452B41F490EFE92EF12CA0
:1018D00007C0203F3105C9F3B8010E94083C7B01D5
:1018E000E5E6F4E043E854E081E0293731050CF403
:1018F00080E0819581934E175F07B1F72937310555
:101900000CF48901D0E0C0E0D12CC12CAA24A3940E
:10191000B12CEC2FC016D106FCF4CE01B7010E9409
:10192000083C892BC9F48FEFC81AD80ACE018095DC
:10193000909587709927A50101C0440F8A95EAF711
:10194000E695E695E695F0E0EB59FB4F8081293767
:1019500031058CF4842B80832196C03FD105C9F6D4
:10196000DF91CF911F910F91FF90EF90DF90CF907B
:10197000BF90AF90089540958423EDCF222341F08E
:101980008617970719F0AC0141505109CA01089513
:101990008417950721F0AC014F5F5F4FF7CFAB0184
:1019A000F5CFCF93C82F8091D304982F9D7F91308E
:1019B00031F42091C5043091C604232B19F0C330B3
:1019C00009F046C08FEF8C0FE091C704823010F011
:1019D000E0915101F0E0EE0FFF1FEF53FE4FA081A9
:1019E000B18128EE33E00E946C3C2091CF04222389
:1019F00069F1C33059F130919701311127C030E0BE
:101A0000235E3F4F4AE0429FF001439FF00D1124B7
:101A100020910305309104052E173F07BCF020915B
:101A2000B9043091BA04429FD001439FB00D1124F4
:101A3000AC59BF4F9B01AC010E947E3C24E630E0D4
:101A400040E050E00E941C3CCA01B901CF910895CA
:101A5000E091C704F0E0EE0FFF1FEF53FE4FA081AF
:101A6000B1812091C5043091C604823011F423E085
:101A700030E040919B0450919C04249FC001259F1D
:101A8000900D349F900D112497FD019695958795A3
:101A9000AC014C595F4F2AE030E00E946C3CDA0107
:101AA0009B01AC010E947E3CA0CFCF93DF93CDB7CA
:101AB000DEB729970FB6F894DEBF0FBECDBF99E011
:101AC000E2EAF1E0DE01119601900D929A95E1F7BC
:101AD0009091A4019F7140E2849F90011124922B68
:101AE000882311F08630B9F5811110C09B83788767
:101AF000698789E0FE013196A2E1B1E001900D9283
:101B00008A95E1F7892F8F71809314012FE331E0DB
:101B100089E0F901D901199601900D928A95E1F7B2
:101B20002950310981E02231380791F79B8378876A
:101B3000698789E0FE013196ABE1B1E001900D9239
:101B40008A95E1F729960FB6F894DEBF0FBECDBF98
:101B5000DF91CF91089560E070E0D8CF1F93CF93CD
:101B6000DF93EC01162F61E0411101C060E088892C
:101B70000E94D90581E58CBD81E08DBD60E08F8537
:101B80000E94D9051EBD00000DB407FEFDCF8EB525
:101B900061E08F85DF91CF911F910C94D905DC0115
:101BA000ED91FC910084F185E02D40E00994FC0169
:101BB0002781269526952695621720F46583606B0C
:101BC0000C94CF0D08950F931F93CF93FC012681A2
:101BD000621798F4C62F8C0164836085C60F6C2F42
:101BE0006F700E94CF0D6C2F62956F706061C8019D
:101BF000CF911F910F910C94CF0DCF911F910F9109
:101C00000895DF92EF92FF920F931F93CF93DF938C
:101C1000EC01D62EE42E022F1A868F8186958695AA
:101C20008695281710F00FEF080F1E2D60E0CE01EB
:101C3000011780F00E94E30D612FCE010E94D70DA5
:101C4000F12C6D85CE010E94D907F394DF14C8F7FB
:101C50001F5FECCF0E94E30D6E2DCE01DF91CF917F
:101C60001F910F91FF90EF90DF900C94D70DFC0126
:101C7000278126952695269521506681615040E062
:101C80000C94010E2F923F924F925F926F927F922F
:101C90008F929F92AF92BF92CF92DF92EF92FF927C
:101CA0000F931F93CF93DF93CDB7DEB72C970FB66B
:101CB000F894DEBF0FBECDBFFC012385348521150E
:101CC000310509F458C1062F9C878B87F90132969C
:101CD000749031965491C52ED12CF7E0CF0ED11CC3
:101CE00093E0D594C7949A95E1F7CB82F9013496A5
:101CF00044913196E491641740F08E2F90E0BC013E
:101D0000640F711D06171706ACF10D3001F560E088
:101D10008B859C850E94E30D81E090E02C960FB6A8
:101D2000F894DEBF0FBECDBFDF91CF911F910F9111
:101D3000FF90EF90DF90CF90BF90AF909F908F90EB
:101D40007F906F905F904F903F902F9008950A3052
:101D500009F011C160E08B859C850E94E30DEB8545
:101D6000FC85868565818C9D600D1124CF010E94C4
:101D7000D70DD2CF7901F6E0EF0EF11C602F641B76
:101D8000EB85FC854185F90174912F5F3F4FF90187
:101D90002491372F2230310508F072C07C9C9001CD
:101DA0007D9C300D1124629FC001639F900D112412
:101DB000E80EF91E512CEB85FC8534802580F285D8
:101DC000FC83272D30E03A83298388248394912C47
:101DD000412C842F90E098878F838FE790E0FC015F
:101DE000E319F109FA87E987FB814F1608F0BFC0B4
:101DF000612C23EA200F2D8331EA300F3E83EB85DF
:101E0000FC858685681608F0A9C02C8122874110C0
:101E100002C0662069F0EB85FC8515811F5F632D8C
:101E2000CF010E94E30D612F8B859C850E94D70D09
:101E30000B3509F048C010E0212F30E083E090E03E
:101E40000D3531F089859A850E3511F090E080E0EE
:101E50004F815885840F951F281739070CF03BC018
:101E600051E0651206C0EB85FC85858560E48F3FF7
:101E700009F060E08B859C850E94D9071F5FDCCF4D
:101E8000577028E0522E551A511101C0512CF701FC
:101E9000712C30E020E0761631F05491250F311D81
:101EA00073943196F8CFF701E70DF11D7490C29E3F
:101EB000F001C39EF00DD29EF00D11248E0F9F1FD6
:101EC000E80EF91E78CFFD81B12CA12CF23028F458
:101ED0000B3309F03EC0639492CFA714B0F5F5011F
:101EE000EE0DFF1D1491552061F0C814D90449F47A
:101EF000E12FF0E0052C02C0F595E7950A94E2F792
:101F00001E2FEB85FC8586858230B1F46110129519
:101F10001F70E12FF0E0E45DF64F1491F1E06F12D5
:101F200006C0EB85FC8585858F3F09F41064612F21
:101F30008B859C850E94D907612F8B859C850E948B
:101F4000D907FFEFAF1ABF0AC8CF023209F4C3CFD7
:101F5000BFCF2E81223008F4BECF6DCF43942981AC
:101F60003A81E20EF31E3FEF831A930A3DCF622DB2
:101F70008B859C85FCCE90E080E0D0CE6DEA8BEA2C
:101F800095E00E94CF0D61E070E080E090E00E945B
:101F90009A076BE88BEA95E00E94CF0D61E070E054
:101FA00080E090E00E949A076FEA8BEA95E00E9439
:101FB000CF0D10921F05109221051092200581E08F
:101FC0008093E10461E070E080E090E00C949A0777
:101FD000089590E080E00895DF92EF92FF920F93D2
:101FE0001F93CF93DF932091AA05211106C0E92EFC
:101FF000D82E0E94300781110FC01092A8051092B0
:10200000AA051092A90580E0DF91CF911F910F9151
:10201000FF90EF90DF90089580EF0E94C306D1E01B
:1020200000E0F12CC1E00E940307182F0E94030773
:102030001130E1F48130C9F5C134F8F2F092A8050D
:10204000F11003C081E08093AA058091A005882348
:10205000A1F2A0EAB5E0ED2DFE2DCF0108962D915D
:102060002193E817F907D9F781E0CECFE02FF0E010
:10207000181311C08091A805C817A8F4DF01A35652
:10208000BA4F13968C918D2381F410E0C93010F46F
:10209000C093A905FC2EE356FA4F83819D2F90959E
:1020A000892383830AC08C13F0CFE02FF0E0E3563E
:1020B000FA4F83818D2B838311E0812F0E948E063E
:1020C000CF5FDD0F11F40F5FD1E0083008F4ABCF24
:1020D000B3CF90916C059111FCCF282F91E0909394
:1020E0006C0590936B053FEF30936A05109269057C
:1020F000380F309368059093470590914705906D90
:102100009093470590914605913019F51092460538
:10211000909147059093BB009091BC0093FDF8CF40
:1021200095EC9093BC0090916C059130E1F3909107
:102130006905981710F420916905A8E4B5E0E4E278
:10214000F5E080E0821307C01092450580934405B6
:10215000089595EEE6CF9D9191938F5FF3CF2F92E7
:102160003F925F926F927F928F929F92AF92BF92B7
:10217000CF92DF92EF92FF920F931F93CF93DF9353
:10218000CDB7DEB7A1970FB6F894DEBF0FBECDBFB7
:10219000682E962E722E832E702F612F8E010F5F68
:1021A0001F4F81E2D8011D928A95E9F7FA0131E0CB
:1021B00020E08AE2582E8491422F50E08823F1F0EB
:1021C000863209F061C0A72DB82D313059F0A72F04
:1021D000B62F323039F0D701333021F0D601343008
:1021E00009F0D501109709F03FC02F5F400F511F34
:1021F000DA015C923F5F31962032E8F2200F312FF6
:10220000311DF9011082662D8BEA95E00E94E30DE5
:10221000692D8BEA95E00E94D70D1092B805F80160
:1022200001900020E9F73197AF01401B510BB80135
:102230008BEA95E00E945906A1960FB6F894DEBF8E
:102240000FBECDBFDF91CF911F910F91FF90EF9007
:10225000DF90CF90BF90AF909F908F907F906F90C6
:102260005F903F902F9008951D01400F511FD101A5
:102270008D911D01882309F4BDCF2F5FDA018D9365
:10228000AD012032A1F7B6CF2F5F400F511FDA0109
:102290008C93B1CFAF92BF92CF92DF92EF92FF9229
:1022A0000F931F939A0149EBA42E42E0B42E6501CF
:1022B00075018501AB01BC0190E080E00E94AF1088
:1022C0001F910F91FF90EF90DF90CF90BF90AF9054
:1022D0000895CF93DF93CBEAD5E0198649EB52E01E
:1022E00061EF78E081E090E00E944A1181E0898707
:1022F000DF91CF9108958F929F92AF92BF92CF922C
:10230000DF92EF92FF920F931F93CF93DF93CDB79E
:10231000DEB76E970FB6F894DEBF0FBECDBF9E013D
:102320002F5F3F4F49019EE1F90111929A95E9F71C
:10233000E82FF0E0EE0FFF1FEB55F74F259134919A
:10234000F90114911053D40180E0281939092F5F45
:102350003F4FF901EA0FFB1FE491EE2321F08F5F5D
:10236000ED938D31B1F7F401E80FF11D10828AE58C
:1023700097E00E94330581E08093B4058093B9050E
:10238000612F70E089EBA82E82E0B82E65017501FF
:102390008501940147E557E090E080E00E94AF108E
:1023A0006E960FB6F894DEBF0FBECDBFDF91CF9112
:1023B0001F910F91FF90EF90DF90CF90BF90AF9063
:1023C0009F908F9008950F931F93CF93DF93CDB776
:1023D000DEB729970FB6F894DEBF0FBECDBF0983D5
:1023E0001A832B833C834D835E836F837887898731
:1023F00088E60E94A20560E081E995E00E947908E4
:102400000E944505882329F0589A89E10E947B1192
:10241000FFCF88E60E94A20560E081E995E00E9476
:10242000790860E881E995E00E9479088A811AE0DC
:10243000612F0E94FC3B8295807F682F690F81E9A4
:1024400095E00E9479088B818F73612F0E94FC3B7D
:102450008295807F682F690F81E995E00E94790855
:102460006C8181E995E00E9479088D81612F0E943D
:10247000FC3B8295807F682F690F81E995E00E947F
:1024800079088E81612F0E94FC3B8295807F682FA6
:10249000690F81E995E00E9479088F81612F0E9480
:1024A000FC3B8295807F682F690F81E995E00E944F
:1024B00079080E94450588E60E94A20560E081E94E
:1024C00095E00E9479088981612F0E94FC3B8295EA
:1024D000807F682F690F81E995E00E9479080E944A
:1024E000450565E070E080E090E029960FB6F8942D
:1024F000DEBF0FBECDBFDF91CF911F910F910C9426
:102500009A070F931F93CF938C0188E60E94A20530
:1025100068E081E995E00E9479080E9445058823DA
:1025200029F0589A8FE00E947B11FFCF80E290E063
:102530000E946910C0E0909144058091450598176C
:1025400041F00E94BF05F801EC0FF11D8083CF5FC1
:10255000F2CF88E60E94A20568E281E995E00E9438
:1025600079080E944505882329F0589A8FE00E9437
:102570007B11FFCF83E190E00E94691090914405A8
:1025800080914505981741F00E94BF05F801EC0FB6
:10259000F11D8083CF5FF2CFCF911F910F910895EE
:1025A000EF92FF920F931F93CF93DF938C0188E6F6
:1025B0000E94A20568E081E995E00E94790878010F
:1025C0008FE1E80EF11CE801699181E995E00E9434
:1025D0007908CE15DF05C1F70E944505882329F04B
:1025E000589A8EE00E947B11FFCF88E60E94A205D8
:1025F00067E281E995E00E947908780182E3E80EBC
:10260000F11C699181E995E00E947908CE15DF05FA
:10261000C1F762E3C8010E94F407682F81E995E0E1
:102620000E9479080E944505882329F0589A8EE077
:102630000E947B11FFCFDF91CF911F910F91FF90EF
:10264000EF900895EF92FF920F931F93CF93109204
:1026500009041092AA051092A90588E28093A005AA
:102660001092A1051092A2051092A3051092A40544
:102670001092A5051092A6051092A70580E48093FC
:10268000A805E9E0F5E080E1DF011D928A95E9F710
:10269000C0910904EC2EF12CC230B0F4870183E024
:1026A000000F111F8A95E1F7075F1A4FC8010E94BA
:1026B000EC0F882321F0CF5FC0930904E9CF88E0B5
:1026C000F80111928A95E9F71092190581E080933B
:1026D0001A0549E055E090E080E08E159F05A9F0CD
:1026E000EDE5F4E030E020E06191DA01A20FB31FE4
:1026F0007C91761318C02F5F3F4F28303105A1F72A
:1027000080931905811110921A0580911A05813064
:1027100021F4C23010F410921A05CF911F910F913D
:10272000FF90EF9008950196485F5F4FD6CFEF92EC
:10273000FF920F931F93CF93DF93CDB7DEB7E3974D
:102740000FB6F894DEBF0FBECDBFE82E1BAA83E004
:10275000F82E00E011E08091BB0489838091C104D0
:10276000805D8A838091BE04865A8B83E091BC048D
:10277000F091BD049F012C543F4FC901B8010E9444
:10278000083C8C8337FF02C021503F4F3D8380912E
:10279000E6048E8380911B058F838091C004888717
:1027A0008091C5048987E091E704F091E8049F01D6
:1027B00020513F4FC901B8010E94083C8A8737FF6A
:1027C00002C021503F4F3B878091D3048C8780917A
:1027D0000B018D8780910A018E878091C7048F87B6
:1027E00080911801888B80911701898B8091160147
:1027F0008A8B8091C3048B8B809102018C8B80919A
:1028000001018D8B8091D2048E8B809121018F8B61
:1028100080912001888F80911F01898F8091C4044D
:102820008A8F8091B8048B8F3091A2042091A304E9
:10283000832F922FB8010E94083C8C8F832F922FF8
:1028400097FF02C081509F4F9D8F3091A40420912B
:10285000A504832F922FB8010E94083C8E8F832FEE
:10286000922F97FF02C081509F4F9F8F80919B04B2
:1028700088A38091CE0489A38091CF048AA38091FC
:10288000CD048BA38091D1048CA38091C9048DA326
:102890008091B9048EA3809114018FA380911301BC
:1028A00088A78091190189A780911A018AA7809130
:1028B0001D018BA780911C018CA7809122018DA7FF
:1028C000809123018EA78091CC048FA78091CB04A7
:1028D00088AB8091D00489AB8091C8048AABCE01CB
:1028E00001960E94D012CE0101960E94811262E3ED
:1028F000CE0101960E94F4079BA9891769F064E153
:1029000070E080E090E00E949A07FA94F11023CFE3
:102910008EE00E947B11FFCFEE2031F1CE010196B7
:102920007C0104E610E0C8010E94FE37F7016191C6
:102930007F01681719F0C8010E9406380F5F1F4F0A
:102940000639110581F762E3CE0101960E94F40772
:10295000182F86E990E00E94FE37181729F0612FA2
:1029600086E990E00E940638E3960FB6F894DEBF41
:102970000FBECDBFDF91CF911F910F91FF90EF90D0
:1029800008950E94A03C8F929F92AF92BF92CF92E7
:10299000DF92EF92FF926A017B012AE534EC41EF6E
:1029A00054E4CB01B6010E94083B9B01AC016BE7EC
:1029B00074E18AEF92E40E9425382BED3FE049E470
:1029C00050E40E94083B20E030E044E353E40E94DE
:1029D000B7380E94B2384B015C012FE232EA4DEE6B
:1029E0005AE3C701B6010E94083B9B01AC016BE3AF
:1029F0007AEA8AE19AE30E942538A70196010E94AB
:102A0000083B2FE832E44BE352E40E942638A7014A
:102A100096010E94083B9B01AC0161E875E98BEAD5
:102A200091E40E94253820E030E040E752E40E9423
:102A3000B73820E030E040ED51E40E94263820E035
:102A400030E040E752E40E94B73820E030E048EB45
:102A500051E40E9426386B017C012CEA35EC47E2F8
:102A60005BE3C501B4010E94083B9B01AC01C701B7
:102A7000B6010E942638FF90EF90DF90CF90BF9074
:102A8000AF909F908F9008953F924F925F926F9278
:102A90007F928F929F92AF92BF92CF92DF92EF92EE
:102AA000FF920F931F93CF93DF93CDB7DEB7AA9713
:102AB0000FB6F894DEBF0FBECDBF4C01362ECA0153
:102AC000B901E9A2FAA20BA31CA3ADA2BEA2CFA298
:102AD000D8A624E631EA45E15AE40E94253820E0F0
:102AE0003DEA4EE057E40E94B7382B013C01BC019F
:102AF000A201C4010E94C3144B015C0121ED36EF19
:102B00004EE959E3C301B2010E94083B25EC30EACB
:102B10004CE057E40E942638A30192010E94083B32
:102B200025EB3BE34CE853E40E94263869A77AA7DB
:102B3000182F092F6B01E82EF92E20E030E044EB2E
:102B400053E4B601C7010E94033B18165CF420E071
:102B500030E044EB53E4B601C7010E9425386B0115
:102B60007C01EBCF20E030E0A901B601C7010E9453
:102B7000AD3887FF0BC020E030E044EB53E4B601F2
:102B8000C7010E9426386B017C01ECCF28E03BE0B6
:102B900048E054E3C301B2010E94083B23EE30E554
:102BA00040E358E30E942638A30192010E94083BAB
:102BB0009B01AC016CE870EE88E89CE30E9425382C
:102BC00069837A838B839C832BED3FE049E450E457
:102BD000C501B4010E94083B20E030E044E353E427
:102BE0000E94B738698B7A8B8B8B9C8B20E030E00E
:102BF00040E05FE30E94083B0E94C33B9B01AC01A5
:102C00000E94083B69877A878B879C872BED3FE082
:102C100049E450E4B601C7010E94083B20E030E0DF
:102C200044E353E40E94B7386B017C01AC019B0183
:102C30000E9426384B015C010E94753B698F7A8F98
:102C40008B8F9C8F28E83AE241E259E3C301B2013D
:102C50000E94083B9B01AC016DE07FE98CE097E4AA
:102C60000E942538A30192010E94083B2AEB33EC15
:102C700042EB53E40E9426382BED3FE049E450E458
:102C80000E94083B20E030E044E353E40E94B73860
:102C90006D837E838F8398870E94753B6D877E87C7
:102CA0008F87988BC501B4010E94B2384B015C013B
:102CB00020E030E040E850E4C701B6010E94083B44
:102CC0000E94753B6D8F7E8F8F8F98A32D813E81E3
:102CD0004F815885CA01B9010E9426380E94753B70
:102CE0006D8B7E8B8F8B988F298D3A8D4B8D5C8D64
:102CF00069857A858B859C850E94083B6B017C01E8
:102D000029813A814B815C81CA01B9010E94263830
:102D10002D853E854F8558890E94083B9B01AC015B
:102D2000C701B6010E9425386B017C0120E030E02C
:102D300040E850E469817A818B819C810E94083B44
:102D400029853A854B855C850E94083B2D853E850B
:102D50004F8558890E94083BA50194010E94083BB9
:102D60009B01AC01C701B6010E9426386B017C01B2
:102D700020E030E040E05FE369857A858B859C85C3
:102D80000E94083B29853A854B855C850E94083B5B
:102D90002D8D3E8D4F8D58A10E94083B9B01AC01AB
:102DA000C701B6010E9425386B017C0120E030E0AC
:102DB00040EA5FE369817A818B819C810E94083BB4
:102DC00029813A814B815C810E94083B2D893E8993
:102DD0004F89588D0E94083B9B01AC01C701B60189
:102DE0000E94253820E030E044E353E40E94083B91
:102DF0002BED3FE049E450E40E94B73820E030E09A
:102E000040E850E40E94083B69877A878B879C875B
:102E100020E030E044EB53E469A57AA5812F902FA0
:102E20000E94033B18167CF420E030E044EB53E4AE
:102E300069A57AA5812F902F0E94253869A77AA7C6
:102E4000182F092FE5CF20E030E0A90169A57AA568
:102E5000812F902F0E94AD3887FF0FC020E030E017
:102E600044EB53E469A57AA5812F902F0E94263860
:102E700069A77AA7182F092FE6CF20E030E040E4B9
:102E800050E46D817E818F8198850E94083B0E946D
:102E9000753B69837A838B839C832AE534EC41EF0D
:102EA00054E4C301B2010E94083B9B01AC016BE7F3
:102EB00074E18AEF92E40E9425382BED3FE049E46B
:102EC00050E40E94083B20E030E044E353E40E94D9
:102ED000B7380E94753B4B015C0169897A898B89FF
:102EE0009C890E94753B6B017C012BE831EE4AE620
:102EF00057E3C301B2010E94083B2DEE37ED4DE9C7
:102F00005BE30E942638A30192010E94083B9B01CB
:102F1000AC016EEA71E185EF9FE30E9425382D85B3
:102F20003E854F8558890E94083B6D837E838F8341
:102F3000988726EF3FEC43ED58E3C301B2010E94AE
:102F4000083B9B01AC016CE578EC83EA9CE30E94B2
:102F500025382D893E894F89588D0E94083B9B0159
:102F6000AC016D817E818F8198850E9426382B016E
:102F70003C012CEE34E847E959E369817A818B8181
:102F80009C810E94083B9B01AC01C301B2010E94DD
:102F9000263829A53AA5412F502F0E9426382EE227
:102FA00033E74AEB5BE30E9425382B013C012CE818
:102FB00031EA4CE95BE3C501B4010E94083B9B0187
:102FC000AC01C301B2010E9425382BED3FE049E47A
:102FD00050E40E94083B20E030E044E353E40E94C8
:102FE000B7380E94753B9B01AC01C701B6010E9436
:102FF000083B0E9492386B017C012BED3FE049E4D5
:1030000050E469A17AA18BA19CA10E94083B20E019
:1030100030E044E353E40E94B7384B015C0120E008
:1030200030E044E353E4C701B6010E94083B2BEDB6
:103030003FE049E450E40E94B7382BED3FE049E41B
:1030400050E40E94083B20E030E044E353E40E9457
:10305000B7386B017C01C501B4010E94B2382B0165
:103060003C01C701B6010E94B23869837A838B8321
:103070009C83C501B4010E94C33B4B015C01C701A5
:10308000B6010E94C33B6B017C0129813A814B81CF
:103090005C81C301B2010E94083B9B01AC0169E065
:1030A00071E38EE69CEB0E94B7382B013C01A7012F
:1030B0009601C501B4010E94083B9B01AC01C3010C
:1030C000B2010E9425380E941438311001C0905876
:1030D00020E030E044E353E40E94083B2BED3FE066
:1030E00049E450E40E94B7382DA13EA14FA158A554
:1030F0000E94263820E030E040E850E40E94083B7F
:103100009B01AC0160E070E084E394E40E94253808
:1031100029853A854B855C850E942538AA960FB68D
:10312000F894DEBF0FBECDBFDF91CF911F910F91FD
:10313000FF90EF90DF90CF90BF90AF909F908F90D7
:103140007F906F905F904F903F9008952F923F92A5
:103150004F925F926F927F928F929F92AF92BF92A7
:10316000CF92DF92EF92FF920F931F93CF93DF9353
:10317000CDB7DEB72A970FB6F894DEBF0FBECDBF2E
:103180001C0169872A013901EA8623E0621671046D
:1031900034F431E0431A51088CE0680E711CB2011E
:1031A00064597D4E072E000C880B990B0E946139E3
:1031B00020E030EA46EB53E40E94083B0E949C3931
:1031C0006B017C01B3016F5F7F4F072E000C880BF2
:1031D000990B0E94613921E03DEC44EF51E40E94DB
:1031E000083B0E949C394B015C01C20164E670E01F
:1031F0000E94083C82E090E0DC01A61BB70BBD01F9
:10320000072E000C880B990B0E94613969837A8321
:103210008B839C83C20160E971E00E94083C072E09
:10322000000C880B990B0E9461399B01AC016981EC
:103230007A818B819C810E9426380E942939072E31
:10324000000C880B990B0E9461392B013C01A501F0
:103250009401C701B6010E9426386B017C01B801B8
:10326000110F880B990B0E9461399B01AC01C701BA
:10327000B6010E9426389B01AC01C301B2010E9435
:10328000263820E030E94EEB54E40E9425386D8367
:103290007E838F839887F101448055806680778094
:1032A00080819181A281B38189839A83AB83BC831E
:1032B000630152017C018D012D813E814F81588532
:1032C0006985C1010E94441520E030E044EB54E4DC
:1032D0000E94B7382D813E814F8158850E94263843
:1032E0009B01AC01E980FA800B811C816985C101D9
:1032F0000E9444156B017C01AC019B010E94E83BDC
:10330000811149C020E030E040E752E4F1016085DE
:103310007185828593850E94083BA70196010E94D2
:1033200026386B017C0120E030E0A9010E94033BBC
:1033300020E030E040E05FE387FD28C0C701B60130
:103340000E9426380E942939FA8590E080E0FF2308
:1033500011F08CE390E0860F971F2A960FB6F89431
:10336000DEBF0FBECDBFDF91CF911F910F91FF90B8
:10337000EF90DF90CF90BF90AF909F908F907F9015
:103380006F905F904F903F902F900895C701B601C6
:103390000E942538D7CF8FEF9FEFDFCF2F923F923C
:1033A0004F925F926F927F928F929F92AF92BF9255
:1033B000CF92DF92EF92FF920F931F93CF93DF9301
:1033C000CDB7DEB72D970FB6F894DEBF0FBECDBFD9
:1033D0006091C1047091C204072E000C880B990BF8
:1033E0000E94613920E030E040E85EE30E94083B43
:1033F0006B017C016091BC047091BD04072E000C30
:10340000880B990B0E9461394B015C016091BE04ED
:103410007091BF04072E000C880B990B0E94613934
:1034200069837A838B839C838D829E82AF82B886E8
:10343000C986DA86EB86FC86F0901C0560909D01BB
:10344000712C80909E01912CA0909F01B12C20E3C3
:10345000A21A28EFB20AEF2C83019401A50161E0C2
:10346000CE0101960E94A6186C019401A50160E0AE
:10347000CE0101960E94A6188C0141EAC41645E0CF
:10348000D4060CF0D0C0813A95400CF0CCC08091AD
:103490009B01E0919A01F0E06CE3869FE00DF11D45
:1034A0001124FF2049F0CF01CC96E456F540803A34
:1034B00025E092070CF4FC019090D30442E09416AE
:1034C00009F4B6C0A091C304B0E0A551BE4F4C9121
:1034D00056EF540390011124200F311FC901203AE7
:1034E000354010F080E090E06CE370E00E94083C12
:1034F000662E782E2090D1043090C90496018AE07F
:10350000489F200D311D1124203A95E0390708F01D
:1035100091C0C9016CE370E00E94083CF62EE82ED1
:103520004091CE0450E09091CC042091CB0430E047
:103530006CE3969F200D311D11248091D0048D875E
:10354000CF01821B930BDC01A056BA4F782F892E36
:1035500097FF02C07A2F8B2EB090C804AD846CE325
:10356000A69ED0011124AB0DB11D59012A173B07AE
:103570000CF45D014090D2045090CD04440F551FCF
:10358000DA01A95FBD4F41E0941257C040920B0190
:1035900050920A0151E095129BC020920201309294
:1035A000010182E08230B1F76091A4047091A5041A
:1035B0002091A2043091A30484E690E0A0E0B0E062
:1035C0002617370794F40C191D09021B130B44E648
:1035D000409FC001419F900D1124621B730B0E94FC
:1035E000083CCB01770FAA0BBB0B90E090939C0497
:1035F00080939B042D960FB6F894DEBF0FBECDBF0F
:10360000DF91CF911F910F91FF90EF90DF90CF90BE
:10361000BF90AF909F908F907F906F905F904F90F2
:103620003F902F90089500EA15E0D12CC12C2FCFA8
:1036300042E14ECF80E090E06DCF64E0961243C04F
:10364000ED90FC904D85483110F550EAE51655E0B7
:10365000F506BCF5E217F307A4F1B7010E94083C98
:103660006F5F7F4F6E9DC0016F9D900D7E9D900D91
:103670001124820F931FA816B9061CF16CE370E0A9
:103680000E94083C60930B0180930A0183CF60EA9B
:10369000E61665E0F606ACF4872F982DB7010E9478
:1036A000083C6F5F7F4F6E9DC0016F9D900D7E9DAA
:1036B000900D1124820F931F60EA75E00E94083C70
:1036C000DDCFC901DBCFF0920B01E0920A0162CF9E
:1036D000609202017092010164CF64EC79E080E0B5
:1036E00090E00E949A071092E20410922105109235
:1036F000200510929D040C94CE192F923F924F9268
:103700005F926F927F928F929F92AF92BF92CF9271
:10371000DF92EF92FF920F931F93CF93DF93182FB7
:1037200080919701811111C080911B05823069F44D
:1037300090911A0580911905981739F0D1E0809180
:10374000010590910205892B09F4D0E00091D6047F
:10375000C0E0002329F0C091B704C111C091B604A4
:103760008AE597E00E94330581E08093B40582E00A
:103770008093B9058091BB044BE8842E42E0942EDF
:10378000811104C03DE8832E32E0932E113009F000
:1037900052C28091E2048150833008F022C149EB8B
:1037A00052E0011102C04FE852E064E577E090E09A
:1037B00080E00E944A118091E2040E94D10C2B010A
:1037C0003C01C0909E04D0909F04E090A004F09033
:1037D000A1040E94CD0721E02093B905970186013D
:1037E00008511C4F2F4F3F4F040D151D261D371D2F
:1037F00068017901C61AD70AE80AF90AB701A601D1
:1038000083E894E00E94A00A29EBA22E22E0B22EC7
:103810006501750185019C0143E457E066E070E0B5
:1038200090E080E00E94AF1027E047E06FE78BEA6E
:1038300095E00E94010E80910505909106050E9479
:10384000FB098C012091EB043091EC042F3F3207EF
:1038500011F42EEF3FEF4CE9A42E42E0B42E5BE9C9
:10386000C52E52E0D52EDD2361F1A8EEB3E00E9413
:103870005D3C6B017C012EEF3FEF40E050E00E9489
:103880001C3CCA01B9012AE030E040E050E00E944F
:103890001C3CAB01BC0120E08CEE93E00E940E0AC0
:1038A0005C01C701B6012CEE3FEF49E050E00E94F9
:1038B0001C3CBA01A90120E080EE93E00E940E0AB0
:1038C0006C018091970181119EC1C8016AE070E08E
:1038D0000E94083C7B01AC01990F660B770B20E03E
:1038E0008FE894E00E940E0A8C01A701FF0C660B82
:1038F000770B20E083E894E00E940E0A74019C019B
:1039000041EE56E064E070E090E080E00E94AF108D
:103910008091E304833090F48091D604882331F0C1
:103920008091E2044EE952E0882311F04CEA52E023
:103930006AED76E085E090E00E944A118CEC95E01B
:103940000E94330582E08093B405CC2329F0809156
:10395000E004873009F45CC14091A20150E070E0BE
:1039600060E021E080EE93E00E940E0A7C01C1112C
:1039700053C14091A30150E070E060E021E08FE886
:1039800094E00E940E0A8C01C1114DC14091A40126
:1039900050E070E060E021E083E894E00E940E0ACD
:1039A00029EBA22E22E0B22E65019C0145EC55E0E8
:1039B00062E070E08CE090E00E94AF10DF91CF9168
:1039C0001F910F91FF90EF90DF90CF90BF90AF903D
:1039D0009F908F907F906F905F904F903F902F902F
:1039E00008951091A50180911C05882341F08091D4
:1039F000A401811104C01F5F183009F411E081E0B7
:103A00008093B905CC2329F08091E004843009F437
:103A1000D8C04091A80150E070E060E021E08FE85C
:103A200094E00E940E0A6C01CC2329F08091E004FE
:103A3000833009F4CBC0E091A701E150FF0BEE0FFA
:103A4000FF1FED5CFD4FE080F180C111C3C04091CC
:103A5000A60150E070E060E020E083E894E00E947E
:103A60000E0AC111C2C0212F2150330BF901EE0FF4
:103A7000FF1FEB5DFD4F208131814091A6014A304F
:103A800008F0BEC043E357E0F9EBAF2EF2E0BF2EE3
:103A90008C0161E070E090E080E00E94AF10209126
:103AA000E30434E6239FC0011124EEE0F0E0BF01FF
:103AB0000E94083C462F3CE0239FC0011124BF0117
:103AC0000E94083C82E28093F803E9EFF3E080E093
:103AD00090E6861708F09FE591938F5F8C30C1F7D1
:103AE0008BE3809305041092060450E070E060E0E0
:103AF00020E083E894E00E940E0AE9EBAE2EE2E0BB
:103B0000BE2E6501750108EF13E09C014AE157E004
:103B100066E070E090E080E00E94AF1080911801B4
:103B2000882309F488CEA0911901B0E0BA2FAA2702
:103B300080911A01A80FB11D28EE33E00E946C3C61
:103B4000AB01BC018CEE93E00E94A00A5C014091A5
:103B5000130150E070E060E021E080EE93E00E940D
:103B60000E0A6C014091140150E070E060E021E029
:103B70008FE894E00E940E0A7C01E0911701E15069
:103B8000FF0BEE0FFF1FED5CFD4F00811181409197
:103B9000160150E070E060E020E083E894E00E94CD
:103BA0000E0A2091160149E057E02A3010F048EF44
:103BB00056E09C0167E070E090E080E00E94AF106A
:103BC0003ACE87EBC82E82E0D82E30CFB6EBEB2E64
:103BD000B2E0FB2E8091E004823009F038CF809172
:103BE000A6018A3050F488EB92E02091E004213065
:103BF00009F039CF26EB32E040CF87EB92E0F5CFEA
:103C000044E257E041CF0CE912E08BE992E076CE36
:103C10003AEBE32E32E0F32E8091E004863009F097
:103C2000A8CE0AEB12E08091E004853009F0AECE18
:103C30008AEB92E0B5CE123009F066C28BE10E94A9
:103C40007B110E946911CC2331F08091E00449EB93
:103C500052E0813049F0E091D304F0E0EE0FFF1F15
:103C6000E55EFD4F408151816CEB75E082E090E0B4
:103C70000E944A11D091D304D13069F010910B0108
:103C8000B0900A010091020140910101D1111DC0C3
:103C900027E043E022C21091D204B090CD040091FD
:103CA000D1044091C904CC2309F477C68091E00483
:103CB000853031F0843009F082C1083109F081C1CA
:103CC00057EBC52E52E0D52E87C1D43061F7E09175
:103CD000CE04CC2321F08091E0048230C9F0AE2FD5
:103CE000B0E0AA0FBB1FA95FBD4F8D919C918C3393
:103CF00091050CF44DC60DEB12E0C1110BC06CE345
:103D000070E00E94083CAB01770F660B770B1EC07A
:103D100006EB12E08091E004823051F4EE2329F0AA
:103D2000E45087EB92E0E430B0F488EB92E013C00B
:103D3000F0E0EE0FFF1FE95FFD4F808191818C3332
:103D40009105ECF6AC01990F660B770B20E083E848
:103D500094E00E940E0AF9EBAF2EF2E0BF2E65014F
:103D600075019C0140EB55E063E070E090E080E07D
:103D70000E94AF10CC2329F08091E004873009F431
:103D800002C14091C80450E070E060E021E08CEE98
:103D900093E00E940E0A6C01C111F9C04091D00459
:103DA00050E070E060E021E080EE93E00E940E0AB7
:103DB0007C01C111F5C04091CB0450E070E060E09F
:103DC00021E08FE894E00E940E0A8C01C111EFC03F
:103DD0004091CC0450E070E060E021E083E894E0A2
:103DE0000E940E0A2091D0044AE855E0283151F48F
:103DF000CC2331F02091E0044BE755E0263011F060
:103E00004DE955E069EBA62E62E0B62E9C0164E018
:103E100070E090E080E00E94AF108091D60488238B
:103E200071F08091E004883051F48091B7048823C8
:103E300031F08091B60449EB52E081110FC0E0915E
:103E4000C704F0E0EE0FFF1FE050FD4F6591749145
:103E500083E894E00E94F73743E854E001E010E083
:103E6000D43011F010E000E066E275E0C80104967D
:103E70000E944A11E090C504F090C60482E38E9D32
:103E8000A0018F9D500D1124052E000C660B770BA1
:103E900020E083E894E00E940E0ACC2331F02091C8
:103EA000E00467E175E0293061F02091D30462EF0E
:103EB00074E0223031F060EE74E0EF2811F065E03C
:103EC00075E0AC01C80105960E944A11D43039F161
:103ED000CC2329F08091E0048A3009F4F6C04091A7
:103EE000C404413009F4F4C08091D304823009F451
:103EF000EFC080ED92E0442359F04150550B052E60
:103F0000000C660B770B20E083E894E00E940E0A19
:103F1000AC016FEC74E086E090E00E944A11809161
:103F2000D3049EEF980F923008F0D5C0CC2331F027
:103F30009091E00449EB52E09B3069F04BEC52E089
:103F4000823049F0E091C304F0E0EE0FFF1FE15032
:103F5000FE4F4081518167EC74E087E090E0DF9193
:103F6000CF911F910F91FF90EF90DF90CF90BF9076
:103F7000AF909F908F907F906F905F904F903F9009
:103F80002F900C944A11E7EBCE2EE2E0DE2E8091CA
:103F9000E004863009F002CF77EBE72E72E0F72ECF
:103FA0008091E004853009F006CF07EB12E08091A4
:103FB000E004843009F00CCF87EB92E013CF083196
:103FC00079F150E070E060E021E08CEE93E00E9437
:103FD0000E0A6C01CC2351F08091E004843029F169
:103FE00038ECE32E32E0F32E083151F0402F50E050
:103FF00070E060E021E080EE93E00E940E0A7C0118
:10400000C11117C0183109F4D6C44B2D50E070E02F
:1040100060E021E08FE894E00E940E0A4C012DC080
:1040200045ECC42E42E0D42ED7CF27EBE22E22E07F
:10403000F22E8091E004833021F0823079F418313F
:1040400081F497EB892E92E0992E8091E0048230E2
:1040500049F1183191F488EC92E028C0183109F444
:10406000A8C44B2D50E070E060E021E08FE894E0C0
:104070000E940E0A4C01C111E8CF412F50E070E0C0
:1040800060E021E083E894E00E940E0A43E355E0FB
:10409000083191F047E555E00FC085EC882E82E0AD
:1040A000982ED3CF87EB92E0183181F74AE655E09E
:1040B000083111F045E455E019EBA12E12E0B12EC4
:1040C00084019C0163E070E0A4CE89EB92E020CFF4
:1040D0008BEC92E01DCF27E047E06FE78BEA95E09D
:1040E000DF91CF911F910F91FF90EF90DF90CF90D4
:1040F000BF90AF909F908F907F906F905F904F9008
:104100003F902F900C94010E133009F0F0C08CE119
:104110000E947B110E946911C090C104D090C2041A
:10412000C60164E070E00E94083C09EB12E00097D1
:1041300081F097FF03C091958195910904ED12E0FC
:104140008130910531F008ED12E0029711F00CED8D
:1041500012E0A601D7FE02C04D5F5F4F559547950F
:1041600055954795052E000C660B770B20E083E8EC
:1041700094E00E940E0A20EE32E0D7FE0AC023E04F
:10418000C20ED11C37E0C316D10408F0A4C02CE93C
:1041900032E0CC2309F4A2C04091E004413009F0A0
:1041A0009DC04BEB54E069EBA62E62E0B62E650194
:1041B00078018C0162E070E090E080E00E94AF1036
:1041C000CC2331F08091E00449EB52E0823049F099
:1041D000E091C004F0E0EE0FFF1FEB50FE4F408176
:1041E000518167E974E083E090E00E944A11C09039
:1041F000BE04D090BF04C601099608EBE02E02E091
:10420000F02E439720F019EBE12E12E0F12EA601DB
:104210000D2C000C660B770B20E083E894E00E94E5
:104220000E0A20EE32E0D7FE02C029EB32E0CC23AA
:1042300009F457C04091E004433009F052C04BE804
:1042400054E0D9EBAD2ED2E0BD2E65018C0164E0C7
:1042500070E090E080E00E94AF10E090BC04F0902D
:10426000BD04A7010F2C000C660B770B20E083E840
:1042700094E00E940E0A20EE32E0F7FE02C029EB25
:1042800032E0CC2389F14091E004443069F540E705
:1042900054E0C9EBAC2EC2E0BC2E650175018C0167
:1042A00065E070E090E080E00E94AF1084E2DF9172
:1042B000CF911F910F91FF90EF90DF90CF90BF9023
:1042C000AF909F908F907F906F905F904F903F90B6
:1042D0002F900C947B1129EB32E05BCF4BEA54E03A
:1042E00062CF4DE754E0ADCF41E654E0D2CF143079
:1042F00009F0BBC08DE10E947B110E946911CC23A3
:1043000031F08091E00449EB52E0813049F0E091D6
:104310001B05F0E0EE0FFF1FE151FE4F4081518180
:1043200066E574E082E090E00E944A11CC2331F00F
:104330008091E00449EB52E0823041F08091BB046F
:1043400042EE52E0811102C04DEE52E068E474E0AA
:1043500083E090E00E944A11D091CF042AE0D29FDE
:10436000C00111248E5D9E4F0E94FB096AE070E03F
:104370000E94083C6B01CC2321F08091E004843042
:1043800019F18091B9049091BA042AE0289FA00104
:10439000299F500D1124052E000C660B770B20E091
:1043A0008FE894E00E940E0A7C0105EF12E0C11133
:1043B00010C0D11149C080ED92E028EB822E22E09E
:1043C000922E05EF12E047C0A7EBEA2EA2E0FA2EEC
:1043D00087018091E004833079F0D111F3C2E8EBDA
:1043E0008E2EE2E09E2EC111EFC280ED92E038EBFE
:1043F000832E32E0932E2FC0F8EB8F2EF2E09F2E0B
:1044000034E6C316D1041CF587EB92E0D111EDC25E
:1044100079EBA72E72E0B72E6801840127EB32E01A
:1044200048E354E064E070E090E080E00E94AF1068
:10443000D091B8044D2F50E070E060E020E083E8B8
:1044400094E00E940E0AEDC205EF12E0C5C286EBB1
:1044500092E0D111CAC248E354E0C9C245EC53E02E
:104460000FC309EB12E0C8012BC3153009F09EC041
:104470008EE10E947B110E946911809121018111BE
:1044800007C049EB52E064EA73E082E090E067CD58
:10449000C2E1D1E0B2E08B2E912C1DE4212E0DE281
:1044A000702E83E5382E9BE4492E29E4522E30E508
:1044B000632E8F85882309F45DC0EB85F0E0A5E0CD
:1044C000F595E795AA95E1F71E2FEE2319F0E63052
:1044D00009F05AC0A889B0E0BA2FAA278989A80F85
:1044E000B11D28EE33E00E946C3CAB01BC011630DC
:1044F00069F42092EC037092ED038EEE93E00E943B
:10450000A00A6CEEA62E63E0B62E05C08CEE93E0FA
:104510000E94A00A5C014A8550E070E060E021E062
:1045200080EE93E00E940E0A6C014B854F7150E0C3
:1045300070E060E021E08FE894E00E940E0A7C01C8
:10454000EE85E150FF0BEE0FFF1FED5CFD4F00818C
:1045500011814D8550E070E060E020E083E894E058
:104560000E940E0A9C0140E953E0B40190E080E013
:104570000E94AF108FEF881A980A299628E08216B9
:10458000910409F096CF1ACA3092EC034092ED03E1
:104590005092EE036092EF037092F003E356FC4FEB
:1045A000E491E093F1031092F203ABCF173009F0DE
:1045B000C5C180E20E947B110E94691180910505AE
:1045C000909106050E94FB09209197012111A9C134
:1045D0006AE070E00E94083C7B01AC01990F660B19
:1045E000770B8FE894E00E940E0A8C01A701FF0C64
:1045F000660B770B20E083E894E00E940E0A39EB0B
:10460000A32E32E0B32E650174019C014EE753E006
:1046100062E070E090E080E00E94AF1080910305BE
:10462000909104050E94FB098C0140916F0150E0BC
:1046300070E060E021E08CEE93E00E940E0A5C01E5
:104640004091700150E070E060E021E080EE93E086
:104650000E940E0A6C014AE0642E712CC801B3015D
:104660000E94083C8B01AC01990F660B770B20E090
:104670008FE894E00E940E0A2C01A801110F660B2E
:10468000770B20E083E894E00E940E0A82019C01EF
:1046900041E753E063E070E090E080E00E94AF10FB
:1046A00080917701909178010E94FB098C014091E3
:1046B0007A0150E070E060E021E08CEE93E00E942F
:1046C0000E0A5C0140917B0150E070E060E021E067
:1046D00080EE93E00E940E0A6C01C801B3010E94B3
:1046E000083C7B01AC01990F660B770B20E08FE84B
:1046F00094E00E940E0A8C01A701FF0C660B770B59
:1047000020E083E894E00E940E0A74019C0144E6D4
:1047100053E064E070E090E080E00E94AF10009110
:10472000EB041091EC040F3F100711F40EEF1FEF94
:10473000409101055091020570E060E020E080EEBC
:1047400093E00E940E0A7C01DD2309F4EFC098017A
:10475000A8EEB3E00E945D3C4B015C012EEF3FEF01
:1047600040E050E00E941C3CCA01B9012AE030E060
:1047700040E050E00E941C3CAB01BC0120E08FE80F
:1047800094E00E940E0A8C01C501B4012CEE3FEFAB
:1047900049E050E00E941C3CBA01A90120E083E8F6
:1047A00094E00E940E0A29EBA22E22E0B22E6501AF
:1047B0009C0141E553E065E070E090E080E00E94FC
:1047C000AF10DD2309F4B7C02091E9043091EA0469
:1047D0002F3F320711F42EEF3FEFA8EEB3E00E9417
:1047E0005D3C4B015C0140915A0150E070E060E09B
:1047F00021E08CEE93E00E940E0A6C0140915B0177
:1048000050E070E060E021E080EE93E00E940E0A4C
:104810007C01C501B4012EEF3FEF40E050E00E9463
:104820001C3CCA01B9012AE030E040E050E00E949F
:104830001C3CAB01BC0120E08FE894E00E940E0A12
:104840008C01C501B4012CEE3FEF49E050E00E941D
:104850001C3CBA01A90120E083E894E00E940E0A02
:10486000C9EBAC2EC2E0BC2E9C0144E453E066E0F0
:1048700070E090E080E00E94AF10209162013091E2
:1048800063012F3F320711F42EEF3FEFA8EEB3E0A4
:104890000E945D3C4B015C014091650150E070E07D
:1048A00060E021E08CEE93E00E940E0A6C014091E2
:1048B000660150E070E060E021E080EE93E00E944D
:1048C0000E0A7C01C501B4012EEF3FEF40E050E03D
:1048D0000E941C3CCA01B9012AE030E040E050E0EF
:1048E0000E941C3CAB01BC0120E08FE894E00E94D8
:1048F0000E0A8C01C501B4012CEE3FEF49E050E0F7
:104900000E941C3CBA01A90120E083E894E00E94C7
:104910000E0AB9EBAB2EB2E0BB2E9C0147E353E08D
:10492000D8C00CE912E08BE992E069CE0CE912E004
:104930008BE992E038CF27E046E0CFCB183009F082
:104940003DC881E20E947B110E946911CC2331F0A5
:104950008091E00449EB52E0813079F0E09151011F
:10496000F0E0EE0FFF1FE050FD4F6591749183E87A
:1049700094E00E94F73743E854E06AE273E082E093
:1049800090E00E944A1182E20E947B1183E28FCC68
:1049900001EC12E0C111BEC9D5C958ECE52E52E0B8
:1049A000F52E65ECC62E62E0D62E083109F42ACB2E
:1049B00008CBC11172CB88EC92E045EC842E42E02A
:1049C000942E74CBCC2341F0833009F419CD80EDC3
:1049D00092E0DD2309F43FCDA601DD0C660B770BD9
:1049E00020E083E894E00E940E0A44E254E079EB70
:1049F000A72E72E0B72E680184019C0164E070E08C
:104A000090E080E00E94AF10D091B8044D2F50E0AC
:104A100070E060E020E083E894E00E940E0ACC237E
:104A200031F02091E00462E174E0253031F069EE6C
:104A300073E0DD2311F06EEF73E0AC0185E090E0F0
:104A40000E944A11E090E704F090E804A7010F2CBF
:104A5000000C660B770B20E083E894E00E940E0ABE
:104A600020EE32E0F7FE02C029EB32E0CC2309F45D
:104A7000F5CC4091E004463009F0F0CC4AED53E02B
:104A800069EBA62E62E0B62E650175018C0166E029
:104A900070E090E080E00E94AF10CC2329F080917C
:104AA000E004873009F4DDCC4091E60450E070E08A
:104AB00060E020E083E894E00E940E0A01EC12E03E
:104AC00049EBA42E42E0B42E650175019C0142EB36
:104AD00053E067E070E090E080E00C94DC1C1F92F3
:104AE0000F920FB60F9211248F939F93AF93BF93A2
:104AF00080914E0490914F04A0915004B0915104C4
:104B00000196A11DB11D80934E0490934F04A09374
:104B10005004B093510480914D0493E0980F9D3759
:104B2000F0F490934D048091520490915304A0911D
:104B30005404B09155040196A11DB11D80935204F7
:104B400090935304A0935404B0935504BF91AF9134
:104B50009F918F910F900FBE0F901F9018958A57BD
:104B600080934D0480914E0490914F04A091500485
:104B7000B09151040196A11DB11D80934E049093F4
:104B80004F04A0935004B0935104CDCF1F920F92C5
:104B90000FB60F9211242F933F934F935F936F9310
:104BA0007F938F939F93AF93BF93EF93FF93F0E027
:104BB000E0E00995FF91EF91BF91AF919F918F91A7
:104BC0007F916F915F914F913F912F910F900FBE09
:104BD0000F901F9018951F920F920FB60F921124ED
:104BE0002F933F934F935F936F937F938F939F93F5
:104BF000AF93BF93EF93FF93E0915B04F0915C045C
:104C00000995FF91EF91BF91AF919F918F917F9106
:104C10006F915F914F913F912F910F900FBE0F9029
:104C20001F9018951F920F920FB60F9211242F9379
:104C30003F934F935F936F937F938F939F93AF9324
:104C4000BF93EF93FF938091B900887F803609F47A
:104C50004AC0F0F5883209F4A7C018F5803109F48C
:104C60009BC0B8F4882309F4F9C0883009F494C0D3
:104C7000FF91EF91BF91AF919F918F917F916F9134
:104C80005F914F913F912F910F900FBE0F901F900A
:104C90001895883109F488C0803251F780936A05ED
:104CA00014C0803409F49DC040F48033B9F38833D4
:104CB000F9F680936A0585ECB0C0803509F485C0AB
:104CC000883509F496C0883499F60E940B08D0CF35
:104CD000883909F48CC038F5883729F050F48836C3
:104CE00011F0803729F683E080936C0510924C0414
:104CF00057C0883809F47BC0803919F0803809F032
:104D0000B7CF80914C04803208F071C0E0914C0420
:104D100081E08E0F80934C048091BB00F0E0E45D55
:104D2000FB4F80833DC0803B39F0E0F4803A09F4CA
:104D300079C0883A09F09CCF84E080936C0510928A
:104D40002B0410922A04E0915804F091590409951B
:104D500080912A0481110FC081E080932A0410926F
:104D60000A0409C0803C09F4A6CF883C09F4A3CF0B
:104D7000883B09F07DCFE0912B0481E08E0F80937A
:104D80002B04F0E0E65FFB4F80818093BB009091A5
:104D90002B0480912A0429C0809147058093BB0091
:104DA00085EC8093BC0064CF909169058091680583
:104DB000981758F5E091690581E08E0F8093690599
:104DC000F0E0E85BFA4F8081E9CFE091690581E08E
:104DD0008E0F809369058091BB00F0E0E85BFA4F8D
:104DE000808390916905809168059817C8F285E8DD
:104DF000D8CFE091690581E08E0F8093690580919D
:104E0000BB00F0E0E85BFA4F808380916B05811175
:104E10005CCF81E08093460584EA8093BC001092C9
:104E20006C0526CF85EC8093BC0010926C058091B8
:104E30004C04803230F4E0914C04F0E0E45DFB4F30
:104E4000108260914C0470E0E0915604F091570498
:104E50008CE294E0099510924C040ACF10926A05F6
:104E600034CF1F920F920FB60F9211248F9380911F
:104E700023058F5F809323058F910F900FBE0F90B6
:104E80001F901895E1E9F5E01382128288EE93E015
:104E9000A0E0B0E084839583A683B7838FE692E099
:104EA00091838083EBEAF5E01382128212861486E6
:104EB0001386158681E0868781E892E0918380835E
:104EC00057985F98E4EDF9E0E491ADE9B5E0EC9333
:104ED000E0ECF9E0E491F0E0EE0FFF1FE155F64F52
:104EE0008591949112969C938E9311971B961C9288
:104EF0001B971D961C921D971C961C921C971A9628
:104F00001C921A9719961C92199718961C9218972A
:104F100017961C92179716961C92169715961C9228
:104F2000159714961C92149713961C920895CF937C
:104F3000DF93CDB7DEB7CB55D1090FB6F894DEBFFE
:104F40000FBECDBFF89482E880937A0083E084BDE1
:104F500085BD80916E00816080936E0081E08093BA
:104F600080009BE0909381008093B00094E0909348
:104F7000B1001092C10078948E010C5C1F4F98E034
:104F8000D8011D929A95E9F798E129E20FB6F894B5
:104F9000A895909360000FBE20936000A895FE0135
:104FA00031964F0193E3DF011D929A95E9F7109234
:104FB00045051092440510926E05109290051092CE
:104FC0006C0580936B0510924605449A459A809132
:104FD000B9008E7F8093B9008091B9008D7F809356
:104FE000B90088E48093B80085E48093BC0087E52D
:104FF00096E0909359048093580488E596E0909346
:105000005704809356046AE070E080E090E00E94CC
:105010009A07209A289A509A6CE271E086E990E00B
:105020000E94220B399A41986AE070E080E090E09B
:105030000E949A07419A6AE070E080E090E00E9446
:105040009A0789E08093BA058AE08093BB05219A8C
:10505000229AFFB6F89480915A0481111EC0E3ECA5
:10506000F9E08491E7EDF9E09491E82FF0E0EE0F9C
:10507000FF1FE45CF64FA591B491EC91E92321F474
:1050800061E08AE00E94D905229A8CB580618CBDCE
:105090008CB580648CBD259A239A80915A048F5FC9
:1050A00080935A04FFBE1092AF051092B005ECE950
:1050B000F9E0C590D490EEE9F9E0B490EFE9F9E0B9
:1050C000E491E093B105E0EAF9E0E491E093B20500
:1050D000E1EAF9E0E491E093B305F12CE12CEB1463
:1050E00060F4F601EE0DFF1D64918BEA95E00E94DD
:1050F000CF0DBFEFEB1AFB0AF2CF8BEA95E00E94CF
:10510000370E61E88BEA95E00E94CF0D60E28BEAF2
:1051100095E00E94CF0D8BEA95E00E94370E80E06B
:105120000E947B116CE271E080E090E00E949A079F
:1051300081E08093AB0152985A9A5198599A5498A9
:105140005C9A53985B9A80916800846080936800B1
:1051500080916D00826080936D0080916D00886009
:1051600080936D0080916D00806180936D00DA9A6C
:10517000559A60E085E00E94D9053A9888B188B9CF
:105180006AE070E080E090E00E949A07C4010E940B
:10519000811262E3C4010E94F4079BA9891709F4F4
:1051A00091C08BEA95E00E94370E82E00E947B114D
:1051B000740104E610E0C8010E94FE37F7018193F4
:1051C0007F010F5F1F4F07391105A9F762E3C40183
:1051D0000E94F407682E7BA881E08093B90527EF31
:1051E00032E0671411F022EB32E0F9EBAF2EF2E07F
:1051F000BF2E6501750185014BE859E064E070E060
:1052000090E080E00E94AF1082E08093B9052FEF1C
:1052100032E0671411F028EB32E0E9EBAE2EE2E069
:10522000BE2E65017501850148E759E066E070E032
:1052300090E080E00E94AF10671002C0499933C02F
:105240008BEA95E00E94370E83E00E947B1142E3D7
:1052500050E066E479E0C4010E94EE37C4010E9488
:10526000D0128AE180939F010091990110919A01D7
:1052700020919B0130919C0140919D0150919E0194
:105280006AE17091A0018091A1010E94E31104E6FE
:1052900010E06FEFC8010E9406380F5F1F4F0739FB
:1052A0001105B9F7FFCF89B18BEA95E00E94370E5F
:1052B000C4010E94D01284E00E947B1185E00E940C
:1052C0007B11FFCF89818093BB048A818053990B26
:1052D0009093C2048093C1048B818A55990B90935B
:1052E000BF048093BE048D81282F30E0322F222707
:1052F0008C81820F932F911D845B91099093BD0443
:105300008093BC048E818093E6048F8180931B057B
:105310008885853008F081E08093C004898590E01D
:105320009093C6048093C5048B85282F30E0322FDC
:1053300022278A85820F932F911D805F9109909378
:10534000E8048093E7048C858093D3048D85809353
:105350000B018E8580930A018F858093C70488890D
:10536000809318018989809317018A898093160197
:105370008B898093C3048C89809302018D898093EB
:1053800001018E898093D2048F8980932101888DB9
:1053900080932001898D80931F018A8D8093C4049E
:1053A0008B8D8093B8048D8D90E0982F88272C8D5D
:1053B000820F911D9093A3048093A2048F8D90E09F
:1053C000982F88272E8D820F911D9093A50480938E
:1053D000A40488A190E090939C0480939B0489A1ED
:1053E0008093CE048AA18093CF048BA18093CD04B7
:1053F0008CA18093D1048DA190E09093CA048093F6
:10540000C9048EA190E09093BA048093B9048FA14F
:105410008093140188A58093130189A580931901B5
:105420008AA580931A018BA580931D018CA580937A
:105430001C018DA5809322018EA5809323018FA549
:105440008093CC0488A98093CB0489A98093D0044D
:105450008AA98093C80484E180937F0180937401BA
:1054600080936A0180935F010E94450C0E941C0C8E
:105470009093E5048093E40481E00E947B116CE248
:1054800071E080E090E00E949A0788E60E94A20501
:1054900060E081E995E00E9479080E944505882333
:1054A00029F0589A8AE10E947B11FFCF81E090E0B9
:1054B0000E9469100E94BF0587FF0FC088E60E9406
:1054C000A20560E081E995E00E94790860E081E949
:1054D00095E00E9479080E94450565E070E080E053
:1054E00090E00E949A0761E270E080E090E00E9404
:1054F0009A0788E60E94A20567E081E995E00E948C
:10550000790860E181E995E00E9479080E944505EB
:10551000882329F0589A89E00E947B11FFCF8AE006
:105520000E947B116CE271E080E090E00E949A079B
:10553000A8950E94800B8093E30488E28093A005E5
:105540001092A1051092A2051092A3051092A40535
:105550001092A5051092A6051092A70580E48093ED
:10556000A8051092A9051092AA05C8010E94EC0F87
:10557000811164C08BE00E947B116CE271E080E0DD
:1055800090E00E949A076CE271E086E990E00E9448
:10559000220B6CE271E086E990E00E94220B6CE243
:1055A00071E086E990E00E94220B8BEA95E00E9470
:1055B000370E81E596E090935C0480935B048091C4
:1055C00069008C70826080936900E89A9FE1292EBF
:1055D000312C9E01265F3F4F6A963FAF2EAF6A97F0
:1055E000A89560902305A0902205662011F40C94E4
:1055F000D43710922305A1100C94DD3710922105A9
:105600001092200580911F05882329F00E94BE0F6B
:1056100081E080931E0588E60E94A20560E081E992
:1056200095E00E9479080E944505782E882309F4A8
:1056300093C0589A88E10E947B11FFCF0E943007E7
:10564000882309F497CF32E3E32EF12CC7010E949F
:10565000FE378F3FC1F5FFEFEF1AFF0A2AE3E2168C
:10566000F104A1F71092AA051092A90588E280938F
:10567000A0051092A1051092A2051092A305109208
:10568000A4051092A5051092A6051092A70580E426
:105690008093A805C8010E94EC0F8823A1F078012F
:1056A00002E310E0D701DD907D01C8010E94FE37C2
:1056B000D81621F06D2DC8010E9406380F5F1F4FCC
:1056C0000A33110579F72DE5E22E24E0F22E02E3EC
:1056D00010E0C8010E94FE37F70181937F010F5F40
:1056E0001F4F0A331105A9F70E9422138DE594E09C
:1056F0000E94ED068EE40E94C30680E00E94C3066D
:1057000080E00E94C3068FE70E94C30610911B052C
:10571000123030F090911A0580911905981314C039
:105720000E943007882381F0809119051111809122
:105730001A05F8E08F9FC0011124875F9A4F0E94DD
:10574000ED0684E40E94C3068CE00E947B1168E5AC
:1057500072E080E090E015CF89E0E8EBF1E0D40161
:1057600001900D928A95E1F787E090E00E94691020
:105770005090440580914505581609F496C00E9442
:10578000BF05982F92959770282F2F70C22E3AE060
:10579000939FC00C11249091450559120E94BF059A
:1057A000282F2F70982F92959F70E22E6AE0969F77
:1057B000E00C11249091450559120E94BF05982FC5
:1057C00092959370282F2F70B22EAAE09A9FB00C5A
:1057D00011249091450559120E94BF05082F0F70A2
:1057E000982F92959F70BAE09B9F000D1124909185
:1057F000450559120E94BF05282F2F70982F9295AA
:105800009F70D22EEAE09E9FD00C11249091450506
:1058100059120E94BF05282F2F70982F92959F70C4
:10582000F22EFAE09F9FF00C112490914505591239
:105830000E94BF05982F92959F708F70182F2AE0B5
:10584000929F100D1124C982EA82BB820C83DD82F3
:10585000FE821F8389E0F401DE01AA5BBF4F019045
:105860000D928A95E1F789E0FE01EA5BFF4FA9E915
:10587000B1E001900D928A95E1F789E0E9E9F1E064
:10588000DE01A15BBF4F01900D928A95E1F78091F7
:10589000C004823009F467C250F48130B1F0109234
:1058A0001C0589E0E9E9F1E086C080E06ACF833039
:1058B00009F461C2843099F7B2E0CB2EEE24E39470
:1058C00004E022E040E069E012C02091C104309180
:1058D000C20437FF02C02D5F3F4F359527953595A0
:1058E00027952F5FC22EE12C0AE040E063E0CE0155
:1058F000815B9F4F0E942B0980931C05882389F2AE
:1059000089E0E9E9F1E0DE01DD9601900D928A95EA
:10591000E1F73A8229823E822D828EE190E09887DB
:105920008F833A8629869C878B873E862D86388A88
:105930002F869A8B898B3C8A2B8A9E8B8D8B388EF7
:105940002F8A812F90E00E94A808882309F41CC2A6
:105950008DE190E09C838B8397E1B9121CC2AF2D3F
:10596000A150BB0BFD01EE0FFF1FE80DF91D80815B
:105970009181D816190609F00CC2BCE0FB1207C2CF
:105980001F5FFF24F394DD24D3947FAE2296DFAE15
:1059900022972396FFAE239724961FAF249789E082
:1059A000FE01FD96DE01D49601900D928A95E1F7F5
:1059B00089E0FE01F496A2EAB1E001900D928A9589
:1059C000E1F780919801882321F00E94CE1910926E
:1059D0009801A110E4C161100EC38091E604BCE3FC
:1059E0008B9FC00111242091200530912105821741
:1059F000930710F581E080931F0510922105109206
:105A0000200510921D051092E0041092DF0480938F
:105A100058018BEA95E00E94370E6EEA8BEA95E01A
:105A20000E94CF0D6DEA8BEA95E00E94CF0D6AE8E7
:105A30008BEA95E00E94CF0D80911F0581115FC711
:105A400019B1169511708091B504811751F00E941B
:105A5000CD076093B1047093B2048093B304909324
:105A6000B4040E94CD07C090B104D090B204E0907D
:105A7000B304F090B4046C197D098E099F096A3152
:105A800071058105910528F08091570181131093CC
:105A900057011093B50419B1129511708091B0049B
:105AA000811751F00E94CD076093AC047093AD0450
:105AB0008093AE049093AF040E94CD07C090AC04D5
:105AC000D090AD04E090AE04F090AF046C197D0965
:105AD0008E099F096A3171058105910528F0809131
